S01200006461795F31325F6C63642E7372656380
S11300000C942A000C9447000C9447000C9447006D
S11300100C9447000C9447000C9447000C94470040
S11300200C9447000C9447000C9447000C94470030
S11300300C9447000C9447000C9447000C94470020
S11300400C9447000C9447000C9447000C94470010
S11300500C94470011241FBECFE5D8E0DEBFCDBF0E
S113006010E0A0E6B0E0ECE9F8E002C005900D92E3
S1130070AE37B107D9F720E0AEE7B0E001C01D927A
S1130080AE38B207E1F70E94FD000C944C040C94C6
S1130090000080FF02C0AC9A01C0AC9881FF02C08E
S11300A0AD9A01C0AD9882FF02C0AE9A01C0AE986D
S11300B083FF02C0AF9A01C0AF98969A96988FE9D1
S11300C09FE00197F1F700C000000895CF93C82F77
S11300D0949882958F700E9449008C2F0E94490049
S11300E0CF910895613021F481580E9466000895EB
S11300F0623021F481540E9466000895633021F433
S11301008D560E9466000895643019F48D520E9441
S1130110660008958C9A8D9A8E9AA49AA59AA69AA6
S1130120A79A949896982FE789EA93E02150804003
S11301309040E1F700C0000083E00E9449002FE7EF
S113014089EA93E0215080409040E1F700C000002C
S113015083E00E9449002FE789EA93E02150804020
S11301609040E1F700C0000083E00E9449002FE7BF
S113017089EA93E0215080409040E1F700C00000FC
S113018082E00E94490088E20E9466008CE00E949E
S1130190660086E00E94660080E80E94660008957A
S11301A0CF93C82F949A82958F700E9449008C2F08
S11301B00E944900CF9108950F931F93CF93FC01A0
S11301C08081882379F08F010F5F1F4FC0E00E9468
S11301D0D000CF5FF80181918F018111F8CFC43134
S11301E011F407C0C0E080E20E94D000CF5FC431A8
S11301F0D1F7CF911F910F9108950E948A000F2E7D
S1130200FEE7EF2EF0E0FF2EF02D0F2EFAE7CF2EB3
S1130210F0E0DF2EF02D0E2D1F2D81E1E0E6F0E061
S1130220D70101900D928A95E1F761E081E00E9487
S11302307200C7010E94DC0089E0E1E7F0E0D70129
S113024001900D928A95E1F762E088E00E947200C5
S1130250C7010E94DC00C1E0D0E0DF93CF93DF92BE
S1130260CF92FF92EF920E94620162E081E00E94CD
S11302707200802F912F0E94DC0089E0E1E7F0E01A
S1130280A02FB12F01900D928A95E1F762E088E0EA
S11302900E947200802F912F0E94DC009FEF24E3C4
S11302A08CE0915020408040E1F700C0000021968E
S11302B00F900F900F900F900F900F90C536D105AF
S11302C061F6ABCFAEE0B0E0E8E6F1E00C942304D5
S11302D00D891E8986E08C831A8309838FEF9FE73B
S11302E09E838D83AE01475E5F4F6F89788DCE010B
S11302F001960E948401EF81F885E00FF11F1082BE
S11303002E96E4E00C943F04ABE0B0E0EAE8F1E0C0
S11303100C9415046C017B018A01FC01178216827E
S1130320838181FFCCC1CE0101963C01F60193810A
S1130330F70193FD859193FF81917F01882309F44F
S1130340BAC1853239F493FD859193FF81917F0180
S1130350853229F4B60190E00E947B03E7CF912C0B
S1130360212C312CFFE1F315D8F08B3279F038F4DD
S1130370803279F08332A1F4232D20611DC08D32A7
S113038061F0803369F4232D216016C0832D8260CF
S1130390382EE32DE4603E2E2AC0F32DF8601DC0F4
S11303A037FC2DC020ED280F2A3040F08E32B9F4EE
S11303B036FC81C1232D2064322E19C036FE06C0BE
S11303C08AE0989E200D1124922E11C0EAE02E9E00
S11303D0200D1124222EF32DF0623F2E08C08C36FE
S11303E021F4832D8068382E02C0883641F4F70149
S11303F093FD859193FF81917F018111B3CF982F54
S11304009F7D9554933028F40C5F1F4F9FE399838D
S11304100DC0833631F0833771F0833509F059C04C
S113042021C0F801808189830E5F1F4F8824839443
S1130430912C530113C02801F2E04F0E511CF80116
S1130440A080B18036FE03C0692D70E002C06FEF5A
S11304507FEFC5010E9470034C018201F32DFF77E9
S11304603F2E16C0280122E0420E511CF801A08044
S1130470B18036FE03C0692D70E002C06FEF7FEFDC
S1130480C5010E9465034C01F32DF0683F2E8201E3
S113049033FC1BC0822D90E088169906B0F4B60197
S11304A080E290E00E947B032A94F4CFF50137FCAC
S11304B0859137FE81915F01B60190E00E947B0334
S11304C021102A9421E0821A91088114910471F771
S11304D0E8C0843611F0893641F5F80137FE07C0CB
S11304E060817181828193810C5F1F4F08C060819C
S11304F07181072E000C880B990B0E5F1F4FF32D93
S1130500FF763F2E97FF09C0909580957095619571
S11305107F4F8F4F9F4FF0683F2E2AE030E0A301BA
S11305200E94B703882E861845C0853731F4232DE1
S11305302F7EB22E2AE030E025C0932D997FB92E6C
S11305408F36C1F018F4883579F0B5C0803719F0CA
S1130550883721F0B0C0E92FE061BE2EB4FE0DC093
S1130560FB2DF460BF2E09C034FE0AC0292F26607B
S1130570B22E06C028E030E005C020E130E002C021
S113058020E132E0F801B7FE07C060817181828109
S113059093810C5F1F4F06C06081718180E090E001
S11305A00E5F1F4FA3010E94B703882E8618FB2DF0
S11305B0FF773F2E36FE0DC0232D2E7FA22E8914E9
S11305C058F434FE0BC032FC09C0832D8E7EA82E55
S11305D005C0B82CA32C03C0B82C01C0B92CA4FEB0
S11305E00FC0FE01E80DF11D8081803321F49A2DA6
S11305F0997EA92E09C0A2FE06C0B394B39404C088
S11306008A2D867809F0B394A3FC11C0A0FE06C01D
S1130610B21488F4280C922C9B180EC0B21460F407
S1130620B60180E290E00E947B03B394F7CFB2144A
S113063018F42B1802C0982C212CA4FE10C0B6016B
S113064080E390E00E947B03A2FE17C0A1FC03C0DC
S113065088E790E002C088E590E0B6010CC08A2DDE
S1130660867859F0A1FE02C08BE201C080E2A7FCAB
S11306708DE2B60190E00E947B03891438F4B60140
S113068080E390E00E947B039A94F7CF8A94F3016D
S1130690E80DF11D8081B60190E00E947B0381107A
S11306A0F5CF222009F442CEB60180E290E00E9408
S11306B07B032A94F6CFF6018681978102C08FEFDF
S11306C09FEF2B96E2E10C943104FC0105906150FC
S11306D070400110D8F7809590958E0F9F1F089554
S11306E0FC016150704001900110D8F780959095FD
S11306F08E0F9F1F08950F931F93CF93DF93FB01DA
S1130700238121FD03C08FEF9FEF2CC022FF16C071
S113071046815781248135814217530744F4A081CF
S1130720B1819D012F5F3F4F318320838C932681BC
S113073037812F5F3F4F3783268314C08B01EC0131
S1130740FB010084F185E02D0995892BE1F6D801A0
S113075016968D919C911797019617969C938E935C
S11307601697CE01DF91CF911F910F910895FA0151
S1130770AA27283051F1203181F1E8946F936E7FDC
S11307806E5F7F4F8F4F9F4FAF4FB1E03ED0B4E0CD
S11307903CD0670F781F891F9A1FA11D680F791F0E
S11307A08A1F911DA11D6A0F711D811D911DA11D1F
S11307B020D009F468943F912AE0269F112430192F
S11307C0305D3193DEF6CF010895462F4770405DCA
S11307D04193B3E00FD0C9F7F6CF462F4F70405D79
S11307E04A3318F0495D31FD4052419302D0A9F7D4
S11307F0EACFB4E0A6959795879577956795BA95CE
S1130800C9F700976105710508959B01AC010A2E93
S113081006945795479537952795BA95C9F7620F6A
S1130820731F841F951FA01D08952F923F924F920E
S11308305F926F927F928F929F92AF92BF92CF926C
S1130840DF92EF92FF920F931F93CF93DF93CDB775
S1130850DEB7CA1BDB0B0FB6F894DEBF0FBECDBFED
S113086009942A88398848885F846E847D848C84BE
S11308709B84AA84B984C884DF80EE80FD800C81C7
S11308801B81AA81B981CE0FD11D0FB6F894DEBFAA
S10F08900FBECDBFED010895F894FFCF1A
S113089C496E6372656173696E6720312D31303036
S11108AC0042592054414A494D0025642E0053
S9030000FC
