
day14_ADC_lcd.elf:     file format elf32-avr

Sections:
Idx Name          Size      VMA       LMA       File off  Algn
  0 .text         0000111c  00000000  00000000  00000094  2**1
                  CONTENTS, ALLOC, LOAD, READONLY, CODE
  1 .data         0000001a  00800060  0000111c  000011b0  2**0
                  CONTENTS, ALLOC, LOAD, DATA
  2 .bss          0000001c  0080007a  0080007a  000011ca  2**0
                  ALLOC
  3 .comment      0000005c  00000000  00000000  000011ca  2**0
                  CONTENTS, READONLY
  4 .note.gnu.avr.deviceinfo 0000003c  00000000  00000000  00001228  2**2
                  CONTENTS, READONLY
  5 .debug_aranges 000000b0  00000000  00000000  00001264  2**0
                  CONTENTS, READONLY, DEBUGGING
  6 .debug_info   00000e0d  00000000  00000000  00001314  2**0
                  CONTENTS, READONLY, DEBUGGING
  7 .debug_abbrev 0000079e  00000000  00000000  00002121  2**0
                  CONTENTS, READONLY, DEBUGGING
  8 .debug_line   0000075f  00000000  00000000  000028bf  2**0
                  CONTENTS, READONLY, DEBUGGING
  9 .debug_frame  00000160  00000000  00000000  00003020  2**2
                  CONTENTS, READONLY, DEBUGGING
 10 .debug_str    00000458  00000000  00000000  00003180  2**0
                  CONTENTS, READONLY, DEBUGGING
 11 .debug_loc    000006c0  00000000  00000000  000035d8  2**0
                  CONTENTS, READONLY, DEBUGGING
 12 .debug_ranges 00000080  00000000  00000000  00003c98  2**0
                  CONTENTS, READONLY, DEBUGGING

Disassembly of section .text:

00000000 <__vectors>:
       0:	0c 94 ab 00 	jmp	0x156	; 0x156 <__ctors_end>
       4:	0c 94 c8 00 	jmp	0x190	; 0x190 <__bad_interrupt>
       8:	0c 94 c8 00 	jmp	0x190	; 0x190 <__bad_interrupt>
       c:	0c 94 c8 00 	jmp	0x190	; 0x190 <__bad_interrupt>
      10:	0c 94 c8 00 	jmp	0x190	; 0x190 <__bad_interrupt>
      14:	0c 94 c8 00 	jmp	0x190	; 0x190 <__bad_interrupt>
      18:	0c 94 c8 00 	jmp	0x190	; 0x190 <__bad_interrupt>
      1c:	0c 94 c8 00 	jmp	0x190	; 0x190 <__bad_interrupt>
      20:	0c 94 c8 00 	jmp	0x190	; 0x190 <__bad_interrupt>
      24:	0c 94 c8 00 	jmp	0x190	; 0x190 <__bad_interrupt>
      28:	0c 94 c8 00 	jmp	0x190	; 0x190 <__bad_interrupt>
      2c:	0c 94 c8 00 	jmp	0x190	; 0x190 <__bad_interrupt>
      30:	0c 94 c8 00 	jmp	0x190	; 0x190 <__bad_interrupt>
      34:	0c 94 c8 00 	jmp	0x190	; 0x190 <__bad_interrupt>
      38:	0c 94 c8 00 	jmp	0x190	; 0x190 <__bad_interrupt>
      3c:	0c 94 c8 00 	jmp	0x190	; 0x190 <__bad_interrupt>
      40:	0c 94 c8 00 	jmp	0x190	; 0x190 <__bad_interrupt>
      44:	0c 94 c8 00 	jmp	0x190	; 0x190 <__bad_interrupt>
      48:	0c 94 c8 00 	jmp	0x190	; 0x190 <__bad_interrupt>
      4c:	0c 94 c8 00 	jmp	0x190	; 0x190 <__bad_interrupt>
      50:	0c 94 c8 00 	jmp	0x190	; 0x190 <__bad_interrupt>

00000054 <__trampolines_end>:
      54:	6e 61       	ori	r22, 0x1E	; 30
      56:	6e 00       	.word	0x006e	; ????

00000058 <__c.2332>:
      58:	69 6e 66 00 00 40 7a 10 f3 5a 00 a0 72 4e 18 09     inf..@z..Z..rN..
      68:	00 10 a5 d4 e8 00 00 e8 76 48 17 00 00 e4 0b 54     ........vH.....T
      78:	02 00 00 ca 9a 3b 00 00 00 e1 f5 05 00 00 80 96     .....;..........
      88:	98 00 00 00 40 42 0f 00 00 00 a0 86 01 00 00 00     ....@B..........
      98:	10 27 00 00 00 00 e8 03 00 00 00 00 64 00 00 00     .'..........d...
      a8:	00 00 0a 00 00 00 00 00 01 00 00 00 00 00 2c 76     ..............,v
      b8:	d8 88 dc 67 4f 08 23 df c1 df ae 59 e1 b1 b7 96     ...gO.#....Y....
      c8:	e5 e3 e4 53 c6 3a e6 51 99 76 96 e8 e6 c2 84 26     ...S.:.Q.v.....&
      d8:	eb 89 8c 9b 62 ed 40 7c 6f fc ef bc 9c 9f 40 f2     ....b.@|o.....@.
      e8:	ba a5 6f a5 f4 90 05 5a 2a f7 5c 93 6b 6c f9 67     ..o....Z*.\.kl.g
      f8:	6d c1 1b fc e0 e4 0d 47 fe f5 20 e6 b5 00 d0 ed     m......G.. .....
     108:	90 2e 03 00 94 35 77 05 00 80 84 1e 08 00 00 20     .....5w........ 
     118:	4e 0a 00 00 00 c8 0c 33 33 33 33 0f 98 6e 12 83     N......3333..n..
     128:	11 41 ef 8d 21 14 89 3b e6 55 16 cf fe e6 db 18     .A..!..;.U......
     138:	d1 84 4b 38 1b f7 7c 1d 90 1d a4 bb e4 24 20 32     ..K8..|......$ 2
     148:	84 72 5e 22 81 00 c9 f1 24 ec a1 e5 3d 27           .r^"....$...='

00000156 <__ctors_end>:
     156:	11 24       	eor	r1, r1
     158:	1f be       	out	0x3f, r1	; 63
     15a:	cf e5       	ldi	r28, 0x5F	; 95
     15c:	d8 e0       	ldi	r29, 0x08	; 8
     15e:	de bf       	out	0x3e, r29	; 62
     160:	cd bf       	out	0x3d, r28	; 61

00000162 <__do_copy_data>:
     162:	10 e0       	ldi	r17, 0x00	; 0
     164:	a0 e6       	ldi	r26, 0x60	; 96
     166:	b0 e0       	ldi	r27, 0x00	; 0
     168:	ec e1       	ldi	r30, 0x1C	; 28
     16a:	f1 e1       	ldi	r31, 0x11	; 17
     16c:	02 c0       	rjmp	.+4      	; 0x172 <__do_copy_data+0x10>
     16e:	05 90       	lpm	r0, Z+
     170:	0d 92       	st	X+, r0
     172:	aa 37       	cpi	r26, 0x7A	; 122
     174:	b1 07       	cpc	r27, r17
     176:	d9 f7       	brne	.-10     	; 0x16e <__do_copy_data+0xc>

00000178 <__do_clear_bss>:
     178:	20 e0       	ldi	r18, 0x00	; 0
     17a:	aa e7       	ldi	r26, 0x7A	; 122
     17c:	b0 e0       	ldi	r27, 0x00	; 0
     17e:	01 c0       	rjmp	.+2      	; 0x182 <.do_clear_bss_start>

00000180 <.do_clear_bss_loop>:
     180:	1d 92       	st	X+, r1

00000182 <.do_clear_bss_start>:
     182:	a6 39       	cpi	r26, 0x96	; 150
     184:	b2 07       	cpc	r27, r18
     186:	e1 f7       	brne	.-8      	; 0x180 <.do_clear_bss_loop>
     188:	0e 94 8d 01 	call	0x31a	; 0x31a <main>
     18c:	0c 94 8c 08 	jmp	0x1118	; 0x1118 <_exit>

00000190 <__bad_interrupt>:
     190:	0c 94 00 00 	jmp	0	; 0x0 <__vectors>

00000194 <adc_init>:
	/*
	ADMUX |= (1<<REFS0);                         // For Aref=AVcc 5v
	ADMUX &= ~(1<<REFS1);                // For Aref=AVcc 5v
	*/
	
	ADMUX |= (1<<REFS0);                         // For Aref=AVcc 2.56v
     194:	3e 9a       	sbi	0x07, 6	; 7
	ADMUX |= (1<<REFS1);                // For Aref=AVcc 2.56v
     196:	3f 9a       	sbi	0x07, 7	; 7
		
	ADCSRA &= ~(1<<ADPS0); //Rrescalar div factor =64 - 011
     198:	30 98       	cbi	0x06, 0	; 6
	ADCSRA |= (1<<ADEN)|(1<<ADPS2)|(1<<ADPS1); //Rrescalar div factor =64 - 011
     19a:	86 b1       	in	r24, 0x06	; 6
     19c:	86 68       	ori	r24, 0x86	; 134
     19e:	86 b9       	out	0x06, r24	; 6
     1a0:	08 95       	ret

000001a2 <adc_read>:
	ADMUX &= ~(1<<MUX2);
	ADMUX &= ~(1<<MUX3);
	*/
	
	//variable channel selection
	ADMUX = ((1<<REFS0)|(1<<REFS1)|ch); // variable ch and avcc reference 2.56
     1a2:	80 6c       	ori	r24, 0xC0	; 192
     1a4:	87 b9       	out	0x07, r24	; 7
	
	
	//6. start conversion
	ADCSRA |= (1<<ADSC);
     1a6:	36 9a       	sbi	0x06, 6	; 6
	while (bit_is_set(ADCSRA,ADSC));
     1a8:	36 99       	sbic	0x06, 6	; 6
     1aa:	fe cf       	rjmp	.-4      	; 0x1a8 <adc_read+0x6>
	
	
	//read adc data
	return ADCW;
     1ac:	84 b1       	in	r24, 0x04	; 4
     1ae:	95 b1       	in	r25, 0x05	; 5
}
     1b0:	08 95       	ret

000001b2 <LCDSendCmd4BIT>:



void LCDPutchar(char c)
{
	LCDSendData(c);
     1b2:	80 ff       	sbrs	r24, 0
     1b4:	02 c0       	rjmp	.+4      	; 0x1ba <LCDSendCmd4BIT+0x8>
     1b6:	ac 9a       	sbi	0x15, 4	; 21
     1b8:	01 c0       	rjmp	.+2      	; 0x1bc <LCDSendCmd4BIT+0xa>
     1ba:	ac 98       	cbi	0x15, 4	; 21
     1bc:	81 ff       	sbrs	r24, 1
     1be:	02 c0       	rjmp	.+4      	; 0x1c4 <LCDSendCmd4BIT+0x12>
     1c0:	ad 9a       	sbi	0x15, 5	; 21
     1c2:	01 c0       	rjmp	.+2      	; 0x1c6 <LCDSendCmd4BIT+0x14>
     1c4:	ad 98       	cbi	0x15, 5	; 21
     1c6:	82 ff       	sbrs	r24, 2
     1c8:	02 c0       	rjmp	.+4      	; 0x1ce <LCDSendCmd4BIT+0x1c>
     1ca:	ae 9a       	sbi	0x15, 6	; 21
     1cc:	01 c0       	rjmp	.+2      	; 0x1d0 <LCDSendCmd4BIT+0x1e>
     1ce:	ae 98       	cbi	0x15, 6	; 21
     1d0:	83 ff       	sbrs	r24, 3
     1d2:	02 c0       	rjmp	.+4      	; 0x1d8 <LCDSendCmd4BIT+0x26>
     1d4:	af 9a       	sbi	0x15, 7	; 21
     1d6:	01 c0       	rjmp	.+2      	; 0x1da <LCDSendCmd4BIT+0x28>
     1d8:	af 98       	cbi	0x15, 7	; 21
     1da:	96 9a       	sbi	0x12, 6	; 18
     1dc:	96 98       	cbi	0x12, 6	; 18
     1de:	8f e9       	ldi	r24, 0x9F	; 159
     1e0:	9f e0       	ldi	r25, 0x0F	; 15
     1e2:	01 97       	sbiw	r24, 0x01	; 1
     1e4:	f1 f7       	brne	.-4      	; 0x1e2 <LCDSendCmd4BIT+0x30>
     1e6:	00 c0       	rjmp	.+0      	; 0x1e8 <LCDSendCmd4BIT+0x36>
     1e8:	00 00       	nop
     1ea:	08 95       	ret

000001ec <LCDSendCmd>:
     1ec:	cf 93       	push	r28
     1ee:	c8 2f       	mov	r28, r24
     1f0:	94 98       	cbi	0x12, 4	; 18
     1f2:	82 95       	swap	r24
     1f4:	8f 70       	andi	r24, 0x0F	; 15
     1f6:	0e 94 d9 00 	call	0x1b2	; 0x1b2 <LCDSendCmd4BIT>
     1fa:	8c 2f       	mov	r24, r28
     1fc:	0e 94 d9 00 	call	0x1b2	; 0x1b2 <LCDSendCmd4BIT>
     200:	cf 91       	pop	r28
     202:	08 95       	ret

00000204 <LCDGotoXY>:
     204:	61 30       	cpi	r22, 0x01	; 1
     206:	21 f4       	brne	.+8      	; 0x210 <LCDGotoXY+0xc>
     208:	81 58       	subi	r24, 0x81	; 129
     20a:	0e 94 f6 00 	call	0x1ec	; 0x1ec <LCDSendCmd>
     20e:	08 95       	ret
     210:	62 30       	cpi	r22, 0x02	; 2
     212:	21 f4       	brne	.+8      	; 0x21c <LCDGotoXY+0x18>
     214:	81 54       	subi	r24, 0x41	; 65
     216:	0e 94 f6 00 	call	0x1ec	; 0x1ec <LCDSendCmd>
     21a:	08 95       	ret
     21c:	63 30       	cpi	r22, 0x03	; 3
     21e:	21 f4       	brne	.+8      	; 0x228 <LCDGotoXY+0x24>
     220:	8d 56       	subi	r24, 0x6D	; 109
     222:	0e 94 f6 00 	call	0x1ec	; 0x1ec <LCDSendCmd>
     226:	08 95       	ret
     228:	64 30       	cpi	r22, 0x04	; 4
     22a:	19 f4       	brne	.+6      	; 0x232 <LCDGotoXY+0x2e>
     22c:	8d 52       	subi	r24, 0x2D	; 45
     22e:	0e 94 f6 00 	call	0x1ec	; 0x1ec <LCDSendCmd>
     232:	08 95       	ret

00000234 <LCDInit>:
     234:	8c 9a       	sbi	0x11, 4	; 17
     236:	8d 9a       	sbi	0x11, 5	; 17
     238:	8e 9a       	sbi	0x11, 6	; 17
     23a:	a4 9a       	sbi	0x14, 4	; 20
     23c:	a5 9a       	sbi	0x14, 5	; 20
     23e:	a6 9a       	sbi	0x14, 6	; 20
     240:	a7 9a       	sbi	0x14, 7	; 20
     242:	94 98       	cbi	0x12, 4	; 18
     244:	96 98       	cbi	0x12, 6	; 18
     246:	2f e7       	ldi	r18, 0x7F	; 127
     248:	89 ea       	ldi	r24, 0xA9	; 169
     24a:	93 e0       	ldi	r25, 0x03	; 3
     24c:	21 50       	subi	r18, 0x01	; 1
     24e:	80 40       	sbci	r24, 0x00	; 0
     250:	90 40       	sbci	r25, 0x00	; 0
     252:	e1 f7       	brne	.-8      	; 0x24c <LCDInit+0x18>
     254:	00 c0       	rjmp	.+0      	; 0x256 <LCDInit+0x22>
     256:	00 00       	nop
     258:	83 e0       	ldi	r24, 0x03	; 3
     25a:	0e 94 d9 00 	call	0x1b2	; 0x1b2 <LCDSendCmd4BIT>
     25e:	2f e7       	ldi	r18, 0x7F	; 127
     260:	89 ea       	ldi	r24, 0xA9	; 169
     262:	93 e0       	ldi	r25, 0x03	; 3
     264:	21 50       	subi	r18, 0x01	; 1
     266:	80 40       	sbci	r24, 0x00	; 0
     268:	90 40       	sbci	r25, 0x00	; 0
     26a:	e1 f7       	brne	.-8      	; 0x264 <LCDInit+0x30>
     26c:	00 c0       	rjmp	.+0      	; 0x26e <LCDInit+0x3a>
     26e:	00 00       	nop
     270:	83 e0       	ldi	r24, 0x03	; 3
     272:	0e 94 d9 00 	call	0x1b2	; 0x1b2 <LCDSendCmd4BIT>
     276:	2f e7       	ldi	r18, 0x7F	; 127
     278:	89 ea       	ldi	r24, 0xA9	; 169
     27a:	93 e0       	ldi	r25, 0x03	; 3
     27c:	21 50       	subi	r18, 0x01	; 1
     27e:	80 40       	sbci	r24, 0x00	; 0
     280:	90 40       	sbci	r25, 0x00	; 0
     282:	e1 f7       	brne	.-8      	; 0x27c <LCDInit+0x48>
     284:	00 c0       	rjmp	.+0      	; 0x286 <LCDInit+0x52>
     286:	00 00       	nop
     288:	83 e0       	ldi	r24, 0x03	; 3
     28a:	0e 94 d9 00 	call	0x1b2	; 0x1b2 <LCDSendCmd4BIT>
     28e:	2f e7       	ldi	r18, 0x7F	; 127
     290:	89 ea       	ldi	r24, 0xA9	; 169
     292:	93 e0       	ldi	r25, 0x03	; 3
     294:	21 50       	subi	r18, 0x01	; 1
     296:	80 40       	sbci	r24, 0x00	; 0
     298:	90 40       	sbci	r25, 0x00	; 0
     29a:	e1 f7       	brne	.-8      	; 0x294 <LCDInit+0x60>
     29c:	00 c0       	rjmp	.+0      	; 0x29e <LCDInit+0x6a>
     29e:	00 00       	nop
     2a0:	82 e0       	ldi	r24, 0x02	; 2
     2a2:	0e 94 d9 00 	call	0x1b2	; 0x1b2 <LCDSendCmd4BIT>
     2a6:	88 e2       	ldi	r24, 0x28	; 40
     2a8:	0e 94 f6 00 	call	0x1ec	; 0x1ec <LCDSendCmd>
     2ac:	8c e0       	ldi	r24, 0x0C	; 12
     2ae:	0e 94 f6 00 	call	0x1ec	; 0x1ec <LCDSendCmd>
     2b2:	86 e0       	ldi	r24, 0x06	; 6
     2b4:	0e 94 f6 00 	call	0x1ec	; 0x1ec <LCDSendCmd>
     2b8:	80 e8       	ldi	r24, 0x80	; 128
     2ba:	0e 94 f6 00 	call	0x1ec	; 0x1ec <LCDSendCmd>
     2be:	08 95       	ret

000002c0 <LCDSendData>:
     2c0:	cf 93       	push	r28
     2c2:	c8 2f       	mov	r28, r24
     2c4:	94 9a       	sbi	0x12, 4	; 18
     2c6:	82 95       	swap	r24
     2c8:	8f 70       	andi	r24, 0x0F	; 15
     2ca:	0e 94 d9 00 	call	0x1b2	; 0x1b2 <LCDSendCmd4BIT>
     2ce:	8c 2f       	mov	r24, r28
     2d0:	0e 94 d9 00 	call	0x1b2	; 0x1b2 <LCDSendCmd4BIT>
     2d4:	cf 91       	pop	r28
     2d6:	08 95       	ret

000002d8 <LCDString>:
}


void LCDString(char *msg)
{
     2d8:	0f 93       	push	r16
     2da:	1f 93       	push	r17
     2dc:	cf 93       	push	r28
     2de:	fc 01       	movw	r30, r24
	uint8_t len = 0;

	while(*msg)
     2e0:	80 81       	ld	r24, Z
     2e2:	88 23       	and	r24, r24
     2e4:	79 f0       	breq	.+30     	; 0x304 <LCDString+0x2c>
     2e6:	8f 01       	movw	r16, r30
     2e8:	0f 5f       	subi	r16, 0xFF	; 255
     2ea:	1f 4f       	sbci	r17, 0xFF	; 255
     2ec:	c0 e0       	ldi	r28, 0x00	; 0



void LCDPutchar(char c)
{
	LCDSendData(c);
     2ee:	0e 94 60 01 	call	0x2c0	; 0x2c0 <LCDSendData>

	while(*msg)
	{
		LCDPutchar(*msg);
		msg++; 
		len++;
     2f2:	cf 5f       	subi	r28, 0xFF	; 255

void LCDString(char *msg)
{
	uint8_t len = 0;

	while(*msg)
     2f4:	f8 01       	movw	r30, r16
     2f6:	81 91       	ld	r24, Z+
     2f8:	8f 01       	movw	r16, r30
     2fa:	81 11       	cpse	r24, r1
     2fc:	f8 cf       	rjmp	.-16     	; 0x2ee <LCDString+0x16>
		LCDPutchar(*msg);
		msg++; 
		len++;
	}

	while(LCD_MAX_CHAR_IN_LINE - len)
     2fe:	c4 31       	cpi	r28, 0x14	; 20
     300:	11 f4       	brne	.+4      	; 0x306 <LCDString+0x2e>
     302:	07 c0       	rjmp	.+14     	; 0x312 <LCDString+0x3a>
}


void LCDString(char *msg)
{
	uint8_t len = 0;
     304:	c0 e0       	ldi	r28, 0x00	; 0



void LCDPutchar(char c)
{
	LCDSendData(c);
     306:	80 e2       	ldi	r24, 0x20	; 32
     308:	0e 94 60 01 	call	0x2c0	; 0x2c0 <LCDSendData>
	}

	while(LCD_MAX_CHAR_IN_LINE - len)
	{
		LCDPutchar(0x20); // Space
		len++;
     30c:	cf 5f       	subi	r28, 0xFF	; 255
		LCDPutchar(*msg);
		msg++; 
		len++;
	}

	while(LCD_MAX_CHAR_IN_LINE - len)
     30e:	c4 31       	cpi	r28, 0x14	; 20
     310:	d1 f7       	brne	.-12     	; 0x306 <LCDString+0x2e>
	{
		LCDPutchar(0x20); // Space
		len++;
	}

}
     312:	cf 91       	pop	r28
     314:	1f 91       	pop	r17
     316:	0f 91       	pop	r16
     318:	08 95       	ret

0000031a <main>:
float v = 0;


int main(void)
{
	LCDInit(); // declare lcd data port and control port
     31a:	0e 94 1a 01 	call	0x234	; 0x234 <LCDInit>
    /* Replace with your application code */
    while (1) 
    {
		LCDInit(); //Initialize LCD Display
     31e:	0e 94 1a 01 	call	0x234	; 0x234 <LCDInit>
		adc_init();//Function call
     322:	0e 94 ca 00 	call	0x194	; 0x194 <adc_init>
		
		sprintf(line,"ADC Value:");
     326:	8b e0       	ldi	r24, 0x0B	; 11
     328:	e0 e6       	ldi	r30, 0x60	; 96
     32a:	f0 e0       	ldi	r31, 0x00	; 0
     32c:	a6 e8       	ldi	r26, 0x86	; 134
     32e:	b0 e0       	ldi	r27, 0x00	; 0
     330:	01 90       	ld	r0, Z+
     332:	0d 92       	st	X+, r0
     334:	8a 95       	dec	r24
     336:	e1 f7       	brne	.-8      	; 0x330 <main+0x16>
		LCDGotoXY(1,1);
     338:	61 e0       	ldi	r22, 0x01	; 1
     33a:	81 e0       	ldi	r24, 0x01	; 1
     33c:	0e 94 02 01 	call	0x204	; 0x204 <LCDGotoXY>
		LCDString(line);
     340:	86 e8       	ldi	r24, 0x86	; 134
     342:	90 e0       	ldi	r25, 0x00	; 0
     344:	0e 94 6c 01 	call	0x2d8	; 0x2d8 <LCDString>
		
		sprintf(line,"ADC Volt:");
     348:	8a e0       	ldi	r24, 0x0A	; 10
     34a:	eb e6       	ldi	r30, 0x6B	; 107
     34c:	f0 e0       	ldi	r31, 0x00	; 0
     34e:	a6 e8       	ldi	r26, 0x86	; 134
     350:	b0 e0       	ldi	r27, 0x00	; 0
     352:	01 90       	ld	r0, Z+
     354:	0d 92       	st	X+, r0
     356:	8a 95       	dec	r24
     358:	e1 f7       	brne	.-8      	; 0x352 <main+0x38>
		LCDGotoXY(1,2);
     35a:	62 e0       	ldi	r22, 0x02	; 2
     35c:	81 e0       	ldi	r24, 0x01	; 1
     35e:	0e 94 02 01 	call	0x204	; 0x204 <LCDGotoXY>
		LCDString(line);
     362:	86 e8       	ldi	r24, 0x86	; 134
     364:	90 e0       	ldi	r25, 0x00	; 0
     366:	0e 94 6c 01 	call	0x2d8	; 0x2d8 <LCDString>
			adc_value = adc_read(0); //ADC Read
			//adc_volt = ((adc_value*5)/1024.0); ref =5v
			adc_volt = ((adc_value*2.56)/1024.0); //ref =2.56v
			v = adc_volt*12.195; //as we take r1=56k and r2=5k 
			
			sprintf(line,"%.2f", adc_value);
     36a:	05 e7       	ldi	r16, 0x75	; 117
     36c:	10 e0       	ldi	r17, 0x00	; 0
     36e:	c6 e8       	ldi	r28, 0x86	; 134
     370:	d0 e0       	ldi	r29, 0x00	; 0
		LCDString(line);
		
		
		while(1)
		{
			adc_value = adc_read(0); //ADC Read
     372:	80 e0       	ldi	r24, 0x00	; 0
     374:	0e 94 d1 00 	call	0x1a2	; 0x1a2 <adc_read>
     378:	bc 01       	movw	r22, r24
     37a:	80 e0       	ldi	r24, 0x00	; 0
     37c:	90 e0       	ldi	r25, 0x00	; 0
     37e:	0e 94 b0 05 	call	0xb60	; 0xb60 <__floatunsisf>
     382:	f6 2e       	mov	r15, r22
     384:	e7 2e       	mov	r14, r23
     386:	d8 2e       	mov	r13, r24
     388:	c9 2e       	mov	r12, r25
     38a:	86 2f       	mov	r24, r22
     38c:	9e 2d       	mov	r25, r14
     38e:	ad 2d       	mov	r26, r13
     390:	bc 2d       	mov	r27, r12
     392:	80 93 82 00 	sts	0x0082, r24	; 0x800082 <adc_value>
     396:	90 93 83 00 	sts	0x0083, r25	; 0x800083 <adc_value+0x1>
     39a:	a0 93 84 00 	sts	0x0084, r26	; 0x800084 <adc_value+0x2>
     39e:	b0 93 85 00 	sts	0x0085, r27	; 0x800085 <adc_value+0x3>
			//adc_volt = ((adc_value*5)/1024.0); ref =5v
			adc_volt = ((adc_value*2.56)/1024.0); //ref =2.56v
     3a2:	2a e0       	ldi	r18, 0x0A	; 10
     3a4:	37 ed       	ldi	r19, 0xD7	; 215
     3a6:	43 e2       	ldi	r20, 0x23	; 35
     3a8:	50 e4       	ldi	r21, 0x40	; 64
     3aa:	6f 2d       	mov	r22, r15
     3ac:	7e 2d       	mov	r23, r14
     3ae:	8d 2d       	mov	r24, r13
     3b0:	9c 2d       	mov	r25, r12
     3b2:	0e 94 ed 05 	call	0xbda	; 0xbda <__mulsf3>
     3b6:	20 e0       	ldi	r18, 0x00	; 0
     3b8:	30 e0       	ldi	r19, 0x00	; 0
     3ba:	40 e8       	ldi	r20, 0x80	; 128
     3bc:	5a e3       	ldi	r21, 0x3A	; 58
     3be:	0e 94 ed 05 	call	0xbda	; 0xbda <__mulsf3>
     3c2:	60 93 7e 00 	sts	0x007E, r22	; 0x80007e <adc_volt>
     3c6:	70 93 7f 00 	sts	0x007F, r23	; 0x80007f <adc_volt+0x1>
     3ca:	80 93 80 00 	sts	0x0080, r24	; 0x800080 <adc_volt+0x2>
     3ce:	90 93 81 00 	sts	0x0081, r25	; 0x800081 <adc_volt+0x3>
			v = adc_volt*12.195; //as we take r1=56k and r2=5k 
     3d2:	28 eb       	ldi	r18, 0xB8	; 184
     3d4:	3e e1       	ldi	r19, 0x1E	; 30
     3d6:	43 e4       	ldi	r20, 0x43	; 67
     3d8:	51 e4       	ldi	r21, 0x41	; 65
     3da:	0e 94 ed 05 	call	0xbda	; 0xbda <__mulsf3>
     3de:	60 93 7a 00 	sts	0x007A, r22	; 0x80007a <__data_end>
     3e2:	70 93 7b 00 	sts	0x007B, r23	; 0x80007b <__data_end+0x1>
     3e6:	80 93 7c 00 	sts	0x007C, r24	; 0x80007c <__data_end+0x2>
     3ea:	90 93 7d 00 	sts	0x007D, r25	; 0x80007d <__data_end+0x3>
			
			sprintf(line,"%.2f", adc_value);
     3ee:	cf 92       	push	r12
     3f0:	df 92       	push	r13
     3f2:	ef 92       	push	r14
     3f4:	ff 92       	push	r15
     3f6:	1f 93       	push	r17
     3f8:	0f 93       	push	r16
     3fa:	df 93       	push	r29
     3fc:	cf 93       	push	r28
     3fe:	0e 94 0c 08 	call	0x1018	; 0x1018 <sprintf>
			LCDGotoXY(11,1);
     402:	61 e0       	ldi	r22, 0x01	; 1
     404:	8b e0       	ldi	r24, 0x0B	; 11
     406:	0e 94 02 01 	call	0x204	; 0x204 <LCDGotoXY>
			LCDString(line);
     40a:	ce 01       	movw	r24, r28
     40c:	0e 94 6c 01 	call	0x2d8	; 0x2d8 <LCDString>
			
			sprintf(line,"%.2f", v);
     410:	80 91 7d 00 	lds	r24, 0x007D	; 0x80007d <__data_end+0x3>
     414:	8f 93       	push	r24
     416:	80 91 7c 00 	lds	r24, 0x007C	; 0x80007c <__data_end+0x2>
     41a:	8f 93       	push	r24
     41c:	80 91 7b 00 	lds	r24, 0x007B	; 0x80007b <__data_end+0x1>
     420:	8f 93       	push	r24
     422:	80 91 7a 00 	lds	r24, 0x007A	; 0x80007a <__data_end>
     426:	8f 93       	push	r24
     428:	1f 93       	push	r17
     42a:	0f 93       	push	r16
     42c:	df 93       	push	r29
     42e:	cf 93       	push	r28
     430:	0e 94 0c 08 	call	0x1018	; 0x1018 <sprintf>
			LCDGotoXY(11,2);
     434:	62 e0       	ldi	r22, 0x02	; 2
     436:	8b e0       	ldi	r24, 0x0B	; 11
     438:	0e 94 02 01 	call	0x204	; 0x204 <LCDGotoXY>
			LCDString(line);
     43c:	ce 01       	movw	r24, r28
     43e:	0e 94 6c 01 	call	0x2d8	; 0x2d8 <LCDString>
	#else
		//round up by default
		__ticks_dc = (uint32_t)(ceil(fabs(__tmp)));
	#endif

	__builtin_avr_delay_cycles(__ticks_dc);
     442:	8f e7       	ldi	r24, 0x7F	; 127
     444:	98 e3       	ldi	r25, 0x38	; 56
     446:	21 e0       	ldi	r18, 0x01	; 1
     448:	81 50       	subi	r24, 0x01	; 1
     44a:	90 40       	sbci	r25, 0x00	; 0
     44c:	20 40       	sbci	r18, 0x00	; 0
     44e:	e1 f7       	brne	.-8      	; 0x448 <__LOCK_REGION_LENGTH__+0x48>
     450:	00 c0       	rjmp	.+0      	; 0x452 <__LOCK_REGION_LENGTH__+0x52>
     452:	00 00       	nop
     454:	8d b7       	in	r24, 0x3d	; 61
     456:	9e b7       	in	r25, 0x3e	; 62
     458:	40 96       	adiw	r24, 0x10	; 16
     45a:	0f b6       	in	r0, 0x3f	; 63
     45c:	f8 94       	cli
     45e:	9e bf       	out	0x3e, r25	; 62
     460:	0f be       	out	0x3f, r0	; 63
     462:	8d bf       	out	0x3d, r24	; 61
     464:	86 cf       	rjmp	.-244    	; 0x372 <main+0x58>

00000466 <vfprintf>:
     466:	a0 e1       	ldi	r26, 0x10	; 16
     468:	b0 e0       	ldi	r27, 0x00	; 0
     46a:	e9 e3       	ldi	r30, 0x39	; 57
     46c:	f2 e0       	ldi	r31, 0x02	; 2
     46e:	0c 94 ab 06 	jmp	0xd56	; 0xd56 <__prologue_saves__>
     472:	7c 01       	movw	r14, r24
     474:	1b 01       	movw	r2, r22
     476:	6a 01       	movw	r12, r20
     478:	fc 01       	movw	r30, r24
     47a:	17 82       	std	Z+7, r1	; 0x07
     47c:	16 82       	std	Z+6, r1	; 0x06
     47e:	83 81       	ldd	r24, Z+3	; 0x03
     480:	81 ff       	sbrs	r24, 1
     482:	44 c3       	rjmp	.+1672   	; 0xb0c <__stack+0x2ad>
     484:	9e 01       	movw	r18, r28
     486:	2f 5f       	subi	r18, 0xFF	; 255
     488:	3f 4f       	sbci	r19, 0xFF	; 255
     48a:	39 01       	movw	r6, r18
     48c:	f7 01       	movw	r30, r14
     48e:	93 81       	ldd	r25, Z+3	; 0x03
     490:	f1 01       	movw	r30, r2
     492:	93 fd       	sbrc	r25, 3
     494:	85 91       	lpm	r24, Z+
     496:	93 ff       	sbrs	r25, 3
     498:	81 91       	ld	r24, Z+
     49a:	1f 01       	movw	r2, r30
     49c:	88 23       	and	r24, r24
     49e:	09 f4       	brne	.+2      	; 0x4a2 <vfprintf+0x3c>
     4a0:	31 c3       	rjmp	.+1634   	; 0xb04 <__stack+0x2a5>
     4a2:	85 32       	cpi	r24, 0x25	; 37
     4a4:	39 f4       	brne	.+14     	; 0x4b4 <vfprintf+0x4e>
     4a6:	93 fd       	sbrc	r25, 3
     4a8:	85 91       	lpm	r24, Z+
     4aa:	93 ff       	sbrs	r25, 3
     4ac:	81 91       	ld	r24, Z+
     4ae:	1f 01       	movw	r2, r30
     4b0:	85 32       	cpi	r24, 0x25	; 37
     4b2:	39 f4       	brne	.+14     	; 0x4c2 <vfprintf+0x5c>
     4b4:	b7 01       	movw	r22, r14
     4b6:	90 e0       	ldi	r25, 0x00	; 0
     4b8:	0e 94 d0 07 	call	0xfa0	; 0xfa0 <fputc>
     4bc:	56 01       	movw	r10, r12
     4be:	65 01       	movw	r12, r10
     4c0:	e5 cf       	rjmp	.-54     	; 0x48c <vfprintf+0x26>
     4c2:	10 e0       	ldi	r17, 0x00	; 0
     4c4:	51 2c       	mov	r5, r1
     4c6:	91 2c       	mov	r9, r1
     4c8:	ff e1       	ldi	r31, 0x1F	; 31
     4ca:	f9 15       	cp	r31, r9
     4cc:	d8 f0       	brcs	.+54     	; 0x504 <vfprintf+0x9e>
     4ce:	8b 32       	cpi	r24, 0x2B	; 43
     4d0:	79 f0       	breq	.+30     	; 0x4f0 <vfprintf+0x8a>
     4d2:	38 f4       	brcc	.+14     	; 0x4e2 <vfprintf+0x7c>
     4d4:	80 32       	cpi	r24, 0x20	; 32
     4d6:	79 f0       	breq	.+30     	; 0x4f6 <vfprintf+0x90>
     4d8:	83 32       	cpi	r24, 0x23	; 35
     4da:	a1 f4       	brne	.+40     	; 0x504 <vfprintf+0x9e>
     4dc:	f9 2d       	mov	r31, r9
     4de:	f0 61       	ori	r31, 0x10	; 16
     4e0:	2e c0       	rjmp	.+92     	; 0x53e <vfprintf+0xd8>
     4e2:	8d 32       	cpi	r24, 0x2D	; 45
     4e4:	61 f0       	breq	.+24     	; 0x4fe <vfprintf+0x98>
     4e6:	80 33       	cpi	r24, 0x30	; 48
     4e8:	69 f4       	brne	.+26     	; 0x504 <vfprintf+0x9e>
     4ea:	29 2d       	mov	r18, r9
     4ec:	21 60       	ori	r18, 0x01	; 1
     4ee:	2d c0       	rjmp	.+90     	; 0x54a <vfprintf+0xe4>
     4f0:	39 2d       	mov	r19, r9
     4f2:	32 60       	ori	r19, 0x02	; 2
     4f4:	93 2e       	mov	r9, r19
     4f6:	89 2d       	mov	r24, r9
     4f8:	84 60       	ori	r24, 0x04	; 4
     4fa:	98 2e       	mov	r9, r24
     4fc:	2a c0       	rjmp	.+84     	; 0x552 <vfprintf+0xec>
     4fe:	e9 2d       	mov	r30, r9
     500:	e8 60       	ori	r30, 0x08	; 8
     502:	15 c0       	rjmp	.+42     	; 0x52e <vfprintf+0xc8>
     504:	97 fc       	sbrc	r9, 7
     506:	2d c0       	rjmp	.+90     	; 0x562 <vfprintf+0xfc>
     508:	20 ed       	ldi	r18, 0xD0	; 208
     50a:	28 0f       	add	r18, r24
     50c:	2a 30       	cpi	r18, 0x0A	; 10
     50e:	88 f4       	brcc	.+34     	; 0x532 <vfprintf+0xcc>
     510:	96 fe       	sbrs	r9, 6
     512:	06 c0       	rjmp	.+12     	; 0x520 <vfprintf+0xba>
     514:	3a e0       	ldi	r19, 0x0A	; 10
     516:	13 9f       	mul	r17, r19
     518:	20 0d       	add	r18, r0
     51a:	11 24       	eor	r1, r1
     51c:	12 2f       	mov	r17, r18
     51e:	19 c0       	rjmp	.+50     	; 0x552 <vfprintf+0xec>
     520:	8a e0       	ldi	r24, 0x0A	; 10
     522:	58 9e       	mul	r5, r24
     524:	20 0d       	add	r18, r0
     526:	11 24       	eor	r1, r1
     528:	52 2e       	mov	r5, r18
     52a:	e9 2d       	mov	r30, r9
     52c:	e0 62       	ori	r30, 0x20	; 32
     52e:	9e 2e       	mov	r9, r30
     530:	10 c0       	rjmp	.+32     	; 0x552 <vfprintf+0xec>
     532:	8e 32       	cpi	r24, 0x2E	; 46
     534:	31 f4       	brne	.+12     	; 0x542 <vfprintf+0xdc>
     536:	96 fc       	sbrc	r9, 6
     538:	e5 c2       	rjmp	.+1482   	; 0xb04 <__stack+0x2a5>
     53a:	f9 2d       	mov	r31, r9
     53c:	f0 64       	ori	r31, 0x40	; 64
     53e:	9f 2e       	mov	r9, r31
     540:	08 c0       	rjmp	.+16     	; 0x552 <vfprintf+0xec>
     542:	8c 36       	cpi	r24, 0x6C	; 108
     544:	21 f4       	brne	.+8      	; 0x54e <vfprintf+0xe8>
     546:	29 2d       	mov	r18, r9
     548:	20 68       	ori	r18, 0x80	; 128
     54a:	92 2e       	mov	r9, r18
     54c:	02 c0       	rjmp	.+4      	; 0x552 <vfprintf+0xec>
     54e:	88 36       	cpi	r24, 0x68	; 104
     550:	41 f4       	brne	.+16     	; 0x562 <vfprintf+0xfc>
     552:	f1 01       	movw	r30, r2
     554:	93 fd       	sbrc	r25, 3
     556:	85 91       	lpm	r24, Z+
     558:	93 ff       	sbrs	r25, 3
     55a:	81 91       	ld	r24, Z+
     55c:	1f 01       	movw	r2, r30
     55e:	81 11       	cpse	r24, r1
     560:	b3 cf       	rjmp	.-154    	; 0x4c8 <vfprintf+0x62>
     562:	9b eb       	ldi	r25, 0xBB	; 187
     564:	98 0f       	add	r25, r24
     566:	93 30       	cpi	r25, 0x03	; 3
     568:	20 f4       	brcc	.+8      	; 0x572 <vfprintf+0x10c>
     56a:	99 2d       	mov	r25, r9
     56c:	90 61       	ori	r25, 0x10	; 16
     56e:	80 5e       	subi	r24, 0xE0	; 224
     570:	07 c0       	rjmp	.+14     	; 0x580 <vfprintf+0x11a>
     572:	9b e9       	ldi	r25, 0x9B	; 155
     574:	98 0f       	add	r25, r24
     576:	93 30       	cpi	r25, 0x03	; 3
     578:	08 f0       	brcs	.+2      	; 0x57c <vfprintf+0x116>
     57a:	66 c1       	rjmp	.+716    	; 0x848 <vfprintf+0x3e2>
     57c:	99 2d       	mov	r25, r9
     57e:	9f 7e       	andi	r25, 0xEF	; 239
     580:	96 ff       	sbrs	r25, 6
     582:	16 e0       	ldi	r17, 0x06	; 6
     584:	9f 73       	andi	r25, 0x3F	; 63
     586:	99 2e       	mov	r9, r25
     588:	85 36       	cpi	r24, 0x65	; 101
     58a:	19 f4       	brne	.+6      	; 0x592 <vfprintf+0x12c>
     58c:	90 64       	ori	r25, 0x40	; 64
     58e:	99 2e       	mov	r9, r25
     590:	08 c0       	rjmp	.+16     	; 0x5a2 <vfprintf+0x13c>
     592:	86 36       	cpi	r24, 0x66	; 102
     594:	21 f4       	brne	.+8      	; 0x59e <vfprintf+0x138>
     596:	39 2f       	mov	r19, r25
     598:	30 68       	ori	r19, 0x80	; 128
     59a:	93 2e       	mov	r9, r19
     59c:	02 c0       	rjmp	.+4      	; 0x5a2 <vfprintf+0x13c>
     59e:	11 11       	cpse	r17, r1
     5a0:	11 50       	subi	r17, 0x01	; 1
     5a2:	97 fe       	sbrs	r9, 7
     5a4:	07 c0       	rjmp	.+14     	; 0x5b4 <vfprintf+0x14e>
     5a6:	1c 33       	cpi	r17, 0x3C	; 60
     5a8:	50 f4       	brcc	.+20     	; 0x5be <vfprintf+0x158>
     5aa:	44 24       	eor	r4, r4
     5ac:	43 94       	inc	r4
     5ae:	41 0e       	add	r4, r17
     5b0:	27 e0       	ldi	r18, 0x07	; 7
     5b2:	0b c0       	rjmp	.+22     	; 0x5ca <vfprintf+0x164>
     5b4:	18 30       	cpi	r17, 0x08	; 8
     5b6:	38 f0       	brcs	.+14     	; 0x5c6 <vfprintf+0x160>
     5b8:	27 e0       	ldi	r18, 0x07	; 7
     5ba:	17 e0       	ldi	r17, 0x07	; 7
     5bc:	05 c0       	rjmp	.+10     	; 0x5c8 <vfprintf+0x162>
     5be:	27 e0       	ldi	r18, 0x07	; 7
     5c0:	9c e3       	ldi	r25, 0x3C	; 60
     5c2:	49 2e       	mov	r4, r25
     5c4:	02 c0       	rjmp	.+4      	; 0x5ca <vfprintf+0x164>
     5c6:	21 2f       	mov	r18, r17
     5c8:	41 2c       	mov	r4, r1
     5ca:	56 01       	movw	r10, r12
     5cc:	84 e0       	ldi	r24, 0x04	; 4
     5ce:	a8 0e       	add	r10, r24
     5d0:	b1 1c       	adc	r11, r1
     5d2:	f6 01       	movw	r30, r12
     5d4:	60 81       	ld	r22, Z
     5d6:	71 81       	ldd	r23, Z+1	; 0x01
     5d8:	82 81       	ldd	r24, Z+2	; 0x02
     5da:	93 81       	ldd	r25, Z+3	; 0x03
     5dc:	04 2d       	mov	r16, r4
     5de:	a3 01       	movw	r20, r6
     5e0:	0e 94 e2 06 	call	0xdc4	; 0xdc4 <__ftoa_engine>
     5e4:	6c 01       	movw	r12, r24
     5e6:	f9 81       	ldd	r31, Y+1	; 0x01
     5e8:	fc 87       	std	Y+12, r31	; 0x0c
     5ea:	f0 ff       	sbrs	r31, 0
     5ec:	02 c0       	rjmp	.+4      	; 0x5f2 <vfprintf+0x18c>
     5ee:	f3 ff       	sbrs	r31, 3
     5f0:	06 c0       	rjmp	.+12     	; 0x5fe <vfprintf+0x198>
     5f2:	91 fc       	sbrc	r9, 1
     5f4:	06 c0       	rjmp	.+12     	; 0x602 <vfprintf+0x19c>
     5f6:	92 fe       	sbrs	r9, 2
     5f8:	06 c0       	rjmp	.+12     	; 0x606 <vfprintf+0x1a0>
     5fa:	00 e2       	ldi	r16, 0x20	; 32
     5fc:	05 c0       	rjmp	.+10     	; 0x608 <vfprintf+0x1a2>
     5fe:	0d e2       	ldi	r16, 0x2D	; 45
     600:	03 c0       	rjmp	.+6      	; 0x608 <vfprintf+0x1a2>
     602:	0b e2       	ldi	r16, 0x2B	; 43
     604:	01 c0       	rjmp	.+2      	; 0x608 <vfprintf+0x1a2>
     606:	00 e0       	ldi	r16, 0x00	; 0
     608:	8c 85       	ldd	r24, Y+12	; 0x0c
     60a:	8c 70       	andi	r24, 0x0C	; 12
     60c:	19 f0       	breq	.+6      	; 0x614 <vfprintf+0x1ae>
     60e:	01 11       	cpse	r16, r1
     610:	5a c2       	rjmp	.+1204   	; 0xac6 <__stack+0x267>
     612:	9b c2       	rjmp	.+1334   	; 0xb4a <__stack+0x2eb>
     614:	97 fe       	sbrs	r9, 7
     616:	10 c0       	rjmp	.+32     	; 0x638 <vfprintf+0x1d2>
     618:	4c 0c       	add	r4, r12
     61a:	fc 85       	ldd	r31, Y+12	; 0x0c
     61c:	f4 ff       	sbrs	r31, 4
     61e:	04 c0       	rjmp	.+8      	; 0x628 <vfprintf+0x1c2>
     620:	8a 81       	ldd	r24, Y+2	; 0x02
     622:	81 33       	cpi	r24, 0x31	; 49
     624:	09 f4       	brne	.+2      	; 0x628 <vfprintf+0x1c2>
     626:	4a 94       	dec	r4
     628:	14 14       	cp	r1, r4
     62a:	74 f5       	brge	.+92     	; 0x688 <vfprintf+0x222>
     62c:	28 e0       	ldi	r18, 0x08	; 8
     62e:	24 15       	cp	r18, r4
     630:	78 f5       	brcc	.+94     	; 0x690 <vfprintf+0x22a>
     632:	88 e0       	ldi	r24, 0x08	; 8
     634:	48 2e       	mov	r4, r24
     636:	2c c0       	rjmp	.+88     	; 0x690 <vfprintf+0x22a>
     638:	96 fc       	sbrc	r9, 6
     63a:	2a c0       	rjmp	.+84     	; 0x690 <vfprintf+0x22a>
     63c:	81 2f       	mov	r24, r17
     63e:	90 e0       	ldi	r25, 0x00	; 0
     640:	8c 15       	cp	r24, r12
     642:	9d 05       	cpc	r25, r13
     644:	9c f0       	brlt	.+38     	; 0x66c <vfprintf+0x206>
     646:	3c ef       	ldi	r19, 0xFC	; 252
     648:	c3 16       	cp	r12, r19
     64a:	3f ef       	ldi	r19, 0xFF	; 255
     64c:	d3 06       	cpc	r13, r19
     64e:	74 f0       	brlt	.+28     	; 0x66c <vfprintf+0x206>
     650:	89 2d       	mov	r24, r9
     652:	80 68       	ori	r24, 0x80	; 128
     654:	98 2e       	mov	r9, r24
     656:	0a c0       	rjmp	.+20     	; 0x66c <vfprintf+0x206>
     658:	e2 e0       	ldi	r30, 0x02	; 2
     65a:	f0 e0       	ldi	r31, 0x00	; 0
     65c:	ec 0f       	add	r30, r28
     65e:	fd 1f       	adc	r31, r29
     660:	e1 0f       	add	r30, r17
     662:	f1 1d       	adc	r31, r1
     664:	80 81       	ld	r24, Z
     666:	80 33       	cpi	r24, 0x30	; 48
     668:	19 f4       	brne	.+6      	; 0x670 <vfprintf+0x20a>
     66a:	11 50       	subi	r17, 0x01	; 1
     66c:	11 11       	cpse	r17, r1
     66e:	f4 cf       	rjmp	.-24     	; 0x658 <vfprintf+0x1f2>
     670:	97 fe       	sbrs	r9, 7
     672:	0e c0       	rjmp	.+28     	; 0x690 <vfprintf+0x22a>
     674:	44 24       	eor	r4, r4
     676:	43 94       	inc	r4
     678:	41 0e       	add	r4, r17
     67a:	81 2f       	mov	r24, r17
     67c:	90 e0       	ldi	r25, 0x00	; 0
     67e:	c8 16       	cp	r12, r24
     680:	d9 06       	cpc	r13, r25
     682:	2c f4       	brge	.+10     	; 0x68e <vfprintf+0x228>
     684:	1c 19       	sub	r17, r12
     686:	04 c0       	rjmp	.+8      	; 0x690 <vfprintf+0x22a>
     688:	44 24       	eor	r4, r4
     68a:	43 94       	inc	r4
     68c:	01 c0       	rjmp	.+2      	; 0x690 <vfprintf+0x22a>
     68e:	10 e0       	ldi	r17, 0x00	; 0
     690:	97 fe       	sbrs	r9, 7
     692:	06 c0       	rjmp	.+12     	; 0x6a0 <vfprintf+0x23a>
     694:	1c 14       	cp	r1, r12
     696:	1d 04       	cpc	r1, r13
     698:	34 f4       	brge	.+12     	; 0x6a6 <vfprintf+0x240>
     69a:	c6 01       	movw	r24, r12
     69c:	01 96       	adiw	r24, 0x01	; 1
     69e:	05 c0       	rjmp	.+10     	; 0x6aa <vfprintf+0x244>
     6a0:	85 e0       	ldi	r24, 0x05	; 5
     6a2:	90 e0       	ldi	r25, 0x00	; 0
     6a4:	02 c0       	rjmp	.+4      	; 0x6aa <vfprintf+0x244>
     6a6:	81 e0       	ldi	r24, 0x01	; 1
     6a8:	90 e0       	ldi	r25, 0x00	; 0
     6aa:	01 11       	cpse	r16, r1
     6ac:	01 96       	adiw	r24, 0x01	; 1
     6ae:	11 23       	and	r17, r17
     6b0:	31 f0       	breq	.+12     	; 0x6be <vfprintf+0x258>
     6b2:	21 2f       	mov	r18, r17
     6b4:	30 e0       	ldi	r19, 0x00	; 0
     6b6:	2f 5f       	subi	r18, 0xFF	; 255
     6b8:	3f 4f       	sbci	r19, 0xFF	; 255
     6ba:	82 0f       	add	r24, r18
     6bc:	93 1f       	adc	r25, r19
     6be:	25 2d       	mov	r18, r5
     6c0:	30 e0       	ldi	r19, 0x00	; 0
     6c2:	82 17       	cp	r24, r18
     6c4:	93 07       	cpc	r25, r19
     6c6:	14 f4       	brge	.+4      	; 0x6cc <vfprintf+0x266>
     6c8:	58 1a       	sub	r5, r24
     6ca:	01 c0       	rjmp	.+2      	; 0x6ce <vfprintf+0x268>
     6cc:	51 2c       	mov	r5, r1
     6ce:	89 2d       	mov	r24, r9
     6d0:	89 70       	andi	r24, 0x09	; 9
     6d2:	49 f4       	brne	.+18     	; 0x6e6 <vfprintf+0x280>
     6d4:	55 20       	and	r5, r5
     6d6:	39 f0       	breq	.+14     	; 0x6e6 <vfprintf+0x280>
     6d8:	b7 01       	movw	r22, r14
     6da:	80 e2       	ldi	r24, 0x20	; 32
     6dc:	90 e0       	ldi	r25, 0x00	; 0
     6de:	0e 94 d0 07 	call	0xfa0	; 0xfa0 <fputc>
     6e2:	5a 94       	dec	r5
     6e4:	f7 cf       	rjmp	.-18     	; 0x6d4 <vfprintf+0x26e>
     6e6:	00 23       	and	r16, r16
     6e8:	29 f0       	breq	.+10     	; 0x6f4 <vfprintf+0x28e>
     6ea:	b7 01       	movw	r22, r14
     6ec:	80 2f       	mov	r24, r16
     6ee:	90 e0       	ldi	r25, 0x00	; 0
     6f0:	0e 94 d0 07 	call	0xfa0	; 0xfa0 <fputc>
     6f4:	93 fc       	sbrc	r9, 3
     6f6:	09 c0       	rjmp	.+18     	; 0x70a <vfprintf+0x2a4>
     6f8:	55 20       	and	r5, r5
     6fa:	39 f0       	breq	.+14     	; 0x70a <vfprintf+0x2a4>
     6fc:	b7 01       	movw	r22, r14
     6fe:	80 e3       	ldi	r24, 0x30	; 48
     700:	90 e0       	ldi	r25, 0x00	; 0
     702:	0e 94 d0 07 	call	0xfa0	; 0xfa0 <fputc>
     706:	5a 94       	dec	r5
     708:	f7 cf       	rjmp	.-18     	; 0x6f8 <vfprintf+0x292>
     70a:	97 fe       	sbrs	r9, 7
     70c:	4c c0       	rjmp	.+152    	; 0x7a6 <vfprintf+0x340>
     70e:	46 01       	movw	r8, r12
     710:	d7 fe       	sbrs	r13, 7
     712:	02 c0       	rjmp	.+4      	; 0x718 <vfprintf+0x2b2>
     714:	81 2c       	mov	r8, r1
     716:	91 2c       	mov	r9, r1
     718:	c6 01       	movw	r24, r12
     71a:	88 19       	sub	r24, r8
     71c:	99 09       	sbc	r25, r9
     71e:	f3 01       	movw	r30, r6
     720:	e8 0f       	add	r30, r24
     722:	f9 1f       	adc	r31, r25
     724:	fe 87       	std	Y+14, r31	; 0x0e
     726:	ed 87       	std	Y+13, r30	; 0x0d
     728:	96 01       	movw	r18, r12
     72a:	24 19       	sub	r18, r4
     72c:	31 09       	sbc	r19, r1
     72e:	38 8b       	std	Y+16, r19	; 0x10
     730:	2f 87       	std	Y+15, r18	; 0x0f
     732:	01 2f       	mov	r16, r17
     734:	10 e0       	ldi	r17, 0x00	; 0
     736:	11 95       	neg	r17
     738:	01 95       	neg	r16
     73a:	11 09       	sbc	r17, r1
     73c:	3f ef       	ldi	r19, 0xFF	; 255
     73e:	83 16       	cp	r8, r19
     740:	93 06       	cpc	r9, r19
     742:	29 f4       	brne	.+10     	; 0x74e <vfprintf+0x2e8>
     744:	b7 01       	movw	r22, r14
     746:	8e e2       	ldi	r24, 0x2E	; 46
     748:	90 e0       	ldi	r25, 0x00	; 0
     74a:	0e 94 d0 07 	call	0xfa0	; 0xfa0 <fputc>
     74e:	c8 14       	cp	r12, r8
     750:	d9 04       	cpc	r13, r9
     752:	4c f0       	brlt	.+18     	; 0x766 <vfprintf+0x300>
     754:	8f 85       	ldd	r24, Y+15	; 0x0f
     756:	98 89       	ldd	r25, Y+16	; 0x10
     758:	88 15       	cp	r24, r8
     75a:	99 05       	cpc	r25, r9
     75c:	24 f4       	brge	.+8      	; 0x766 <vfprintf+0x300>
     75e:	ed 85       	ldd	r30, Y+13	; 0x0d
     760:	fe 85       	ldd	r31, Y+14	; 0x0e
     762:	81 81       	ldd	r24, Z+1	; 0x01
     764:	01 c0       	rjmp	.+2      	; 0x768 <vfprintf+0x302>
     766:	80 e3       	ldi	r24, 0x30	; 48
     768:	f1 e0       	ldi	r31, 0x01	; 1
     76a:	8f 1a       	sub	r8, r31
     76c:	91 08       	sbc	r9, r1
     76e:	2d 85       	ldd	r18, Y+13	; 0x0d
     770:	3e 85       	ldd	r19, Y+14	; 0x0e
     772:	2f 5f       	subi	r18, 0xFF	; 255
     774:	3f 4f       	sbci	r19, 0xFF	; 255
     776:	3e 87       	std	Y+14, r19	; 0x0e
     778:	2d 87       	std	Y+13, r18	; 0x0d
     77a:	80 16       	cp	r8, r16
     77c:	91 06       	cpc	r9, r17
     77e:	2c f0       	brlt	.+10     	; 0x78a <vfprintf+0x324>
     780:	b7 01       	movw	r22, r14
     782:	90 e0       	ldi	r25, 0x00	; 0
     784:	0e 94 d0 07 	call	0xfa0	; 0xfa0 <fputc>
     788:	d9 cf       	rjmp	.-78     	; 0x73c <vfprintf+0x2d6>
     78a:	c8 14       	cp	r12, r8
     78c:	d9 04       	cpc	r13, r9
     78e:	41 f4       	brne	.+16     	; 0x7a0 <vfprintf+0x33a>
     790:	9a 81       	ldd	r25, Y+2	; 0x02
     792:	96 33       	cpi	r25, 0x36	; 54
     794:	20 f4       	brcc	.+8      	; 0x79e <vfprintf+0x338>
     796:	95 33       	cpi	r25, 0x35	; 53
     798:	19 f4       	brne	.+6      	; 0x7a0 <vfprintf+0x33a>
     79a:	3c 85       	ldd	r19, Y+12	; 0x0c
     79c:	34 ff       	sbrs	r19, 4
     79e:	81 e3       	ldi	r24, 0x31	; 49
     7a0:	b7 01       	movw	r22, r14
     7a2:	90 e0       	ldi	r25, 0x00	; 0
     7a4:	4e c0       	rjmp	.+156    	; 0x842 <vfprintf+0x3dc>
     7a6:	8a 81       	ldd	r24, Y+2	; 0x02
     7a8:	81 33       	cpi	r24, 0x31	; 49
     7aa:	19 f0       	breq	.+6      	; 0x7b2 <vfprintf+0x34c>
     7ac:	9c 85       	ldd	r25, Y+12	; 0x0c
     7ae:	9f 7e       	andi	r25, 0xEF	; 239
     7b0:	9c 87       	std	Y+12, r25	; 0x0c
     7b2:	b7 01       	movw	r22, r14
     7b4:	90 e0       	ldi	r25, 0x00	; 0
     7b6:	0e 94 d0 07 	call	0xfa0	; 0xfa0 <fputc>
     7ba:	11 11       	cpse	r17, r1
     7bc:	05 c0       	rjmp	.+10     	; 0x7c8 <vfprintf+0x362>
     7be:	94 fc       	sbrc	r9, 4
     7c0:	18 c0       	rjmp	.+48     	; 0x7f2 <vfprintf+0x38c>
     7c2:	85 e6       	ldi	r24, 0x65	; 101
     7c4:	90 e0       	ldi	r25, 0x00	; 0
     7c6:	17 c0       	rjmp	.+46     	; 0x7f6 <vfprintf+0x390>
     7c8:	b7 01       	movw	r22, r14
     7ca:	8e e2       	ldi	r24, 0x2E	; 46
     7cc:	90 e0       	ldi	r25, 0x00	; 0
     7ce:	0e 94 d0 07 	call	0xfa0	; 0xfa0 <fputc>
     7d2:	1e 5f       	subi	r17, 0xFE	; 254
     7d4:	82 e0       	ldi	r24, 0x02	; 2
     7d6:	01 e0       	ldi	r16, 0x01	; 1
     7d8:	08 0f       	add	r16, r24
     7da:	f3 01       	movw	r30, r6
     7dc:	e8 0f       	add	r30, r24
     7de:	f1 1d       	adc	r31, r1
     7e0:	80 81       	ld	r24, Z
     7e2:	b7 01       	movw	r22, r14
     7e4:	90 e0       	ldi	r25, 0x00	; 0
     7e6:	0e 94 d0 07 	call	0xfa0	; 0xfa0 <fputc>
     7ea:	80 2f       	mov	r24, r16
     7ec:	01 13       	cpse	r16, r17
     7ee:	f3 cf       	rjmp	.-26     	; 0x7d6 <vfprintf+0x370>
     7f0:	e6 cf       	rjmp	.-52     	; 0x7be <vfprintf+0x358>
     7f2:	85 e4       	ldi	r24, 0x45	; 69
     7f4:	90 e0       	ldi	r25, 0x00	; 0
     7f6:	b7 01       	movw	r22, r14
     7f8:	0e 94 d0 07 	call	0xfa0	; 0xfa0 <fputc>
     7fc:	d7 fc       	sbrc	r13, 7
     7fe:	06 c0       	rjmp	.+12     	; 0x80c <vfprintf+0x3a6>
     800:	c1 14       	cp	r12, r1
     802:	d1 04       	cpc	r13, r1
     804:	41 f4       	brne	.+16     	; 0x816 <vfprintf+0x3b0>
     806:	ec 85       	ldd	r30, Y+12	; 0x0c
     808:	e4 ff       	sbrs	r30, 4
     80a:	05 c0       	rjmp	.+10     	; 0x816 <vfprintf+0x3b0>
     80c:	d1 94       	neg	r13
     80e:	c1 94       	neg	r12
     810:	d1 08       	sbc	r13, r1
     812:	8d e2       	ldi	r24, 0x2D	; 45
     814:	01 c0       	rjmp	.+2      	; 0x818 <vfprintf+0x3b2>
     816:	8b e2       	ldi	r24, 0x2B	; 43
     818:	b7 01       	movw	r22, r14
     81a:	90 e0       	ldi	r25, 0x00	; 0
     81c:	0e 94 d0 07 	call	0xfa0	; 0xfa0 <fputc>
     820:	80 e3       	ldi	r24, 0x30	; 48
     822:	2a e0       	ldi	r18, 0x0A	; 10
     824:	c2 16       	cp	r12, r18
     826:	d1 04       	cpc	r13, r1
     828:	2c f0       	brlt	.+10     	; 0x834 <vfprintf+0x3ce>
     82a:	8f 5f       	subi	r24, 0xFF	; 255
     82c:	fa e0       	ldi	r31, 0x0A	; 10
     82e:	cf 1a       	sub	r12, r31
     830:	d1 08       	sbc	r13, r1
     832:	f7 cf       	rjmp	.-18     	; 0x822 <vfprintf+0x3bc>
     834:	b7 01       	movw	r22, r14
     836:	90 e0       	ldi	r25, 0x00	; 0
     838:	0e 94 d0 07 	call	0xfa0	; 0xfa0 <fputc>
     83c:	b7 01       	movw	r22, r14
     83e:	c6 01       	movw	r24, r12
     840:	c0 96       	adiw	r24, 0x30	; 48
     842:	0e 94 d0 07 	call	0xfa0	; 0xfa0 <fputc>
     846:	54 c1       	rjmp	.+680    	; 0xaf0 <__stack+0x291>
     848:	83 36       	cpi	r24, 0x63	; 99
     84a:	31 f0       	breq	.+12     	; 0x858 <vfprintf+0x3f2>
     84c:	83 37       	cpi	r24, 0x73	; 115
     84e:	79 f0       	breq	.+30     	; 0x86e <__stack+0xf>
     850:	83 35       	cpi	r24, 0x53	; 83
     852:	09 f0       	breq	.+2      	; 0x856 <vfprintf+0x3f0>
     854:	56 c0       	rjmp	.+172    	; 0x902 <__stack+0xa3>
     856:	20 c0       	rjmp	.+64     	; 0x898 <__stack+0x39>
     858:	56 01       	movw	r10, r12
     85a:	32 e0       	ldi	r19, 0x02	; 2
     85c:	a3 0e       	add	r10, r19
     85e:	b1 1c       	adc	r11, r1
     860:	f6 01       	movw	r30, r12
     862:	80 81       	ld	r24, Z
     864:	89 83       	std	Y+1, r24	; 0x01
     866:	01 e0       	ldi	r16, 0x01	; 1
     868:	10 e0       	ldi	r17, 0x00	; 0
     86a:	63 01       	movw	r12, r6
     86c:	12 c0       	rjmp	.+36     	; 0x892 <__stack+0x33>
     86e:	56 01       	movw	r10, r12
     870:	f2 e0       	ldi	r31, 0x02	; 2
     872:	af 0e       	add	r10, r31
     874:	b1 1c       	adc	r11, r1
     876:	f6 01       	movw	r30, r12
     878:	c0 80       	ld	r12, Z
     87a:	d1 80       	ldd	r13, Z+1	; 0x01
     87c:	96 fe       	sbrs	r9, 6
     87e:	03 c0       	rjmp	.+6      	; 0x886 <__stack+0x27>
     880:	61 2f       	mov	r22, r17
     882:	70 e0       	ldi	r23, 0x00	; 0
     884:	02 c0       	rjmp	.+4      	; 0x88a <__stack+0x2b>
     886:	6f ef       	ldi	r22, 0xFF	; 255
     888:	7f ef       	ldi	r23, 0xFF	; 255
     88a:	c6 01       	movw	r24, r12
     88c:	0e 94 c5 07 	call	0xf8a	; 0xf8a <strnlen>
     890:	8c 01       	movw	r16, r24
     892:	f9 2d       	mov	r31, r9
     894:	ff 77       	andi	r31, 0x7F	; 127
     896:	14 c0       	rjmp	.+40     	; 0x8c0 <__stack+0x61>
     898:	56 01       	movw	r10, r12
     89a:	22 e0       	ldi	r18, 0x02	; 2
     89c:	a2 0e       	add	r10, r18
     89e:	b1 1c       	adc	r11, r1
     8a0:	f6 01       	movw	r30, r12
     8a2:	c0 80       	ld	r12, Z
     8a4:	d1 80       	ldd	r13, Z+1	; 0x01
     8a6:	96 fe       	sbrs	r9, 6
     8a8:	03 c0       	rjmp	.+6      	; 0x8b0 <__stack+0x51>
     8aa:	61 2f       	mov	r22, r17
     8ac:	70 e0       	ldi	r23, 0x00	; 0
     8ae:	02 c0       	rjmp	.+4      	; 0x8b4 <__stack+0x55>
     8b0:	6f ef       	ldi	r22, 0xFF	; 255
     8b2:	7f ef       	ldi	r23, 0xFF	; 255
     8b4:	c6 01       	movw	r24, r12
     8b6:	0e 94 ba 07 	call	0xf74	; 0xf74 <strnlen_P>
     8ba:	8c 01       	movw	r16, r24
     8bc:	f9 2d       	mov	r31, r9
     8be:	f0 68       	ori	r31, 0x80	; 128
     8c0:	9f 2e       	mov	r9, r31
     8c2:	f3 fd       	sbrc	r31, 3
     8c4:	1a c0       	rjmp	.+52     	; 0x8fa <__stack+0x9b>
     8c6:	85 2d       	mov	r24, r5
     8c8:	90 e0       	ldi	r25, 0x00	; 0
     8ca:	08 17       	cp	r16, r24
     8cc:	19 07       	cpc	r17, r25
     8ce:	a8 f4       	brcc	.+42     	; 0x8fa <__stack+0x9b>
     8d0:	b7 01       	movw	r22, r14
     8d2:	80 e2       	ldi	r24, 0x20	; 32
     8d4:	90 e0       	ldi	r25, 0x00	; 0
     8d6:	0e 94 d0 07 	call	0xfa0	; 0xfa0 <fputc>
     8da:	5a 94       	dec	r5
     8dc:	f4 cf       	rjmp	.-24     	; 0x8c6 <__stack+0x67>
     8de:	f6 01       	movw	r30, r12
     8e0:	97 fc       	sbrc	r9, 7
     8e2:	85 91       	lpm	r24, Z+
     8e4:	97 fe       	sbrs	r9, 7
     8e6:	81 91       	ld	r24, Z+
     8e8:	6f 01       	movw	r12, r30
     8ea:	b7 01       	movw	r22, r14
     8ec:	90 e0       	ldi	r25, 0x00	; 0
     8ee:	0e 94 d0 07 	call	0xfa0	; 0xfa0 <fputc>
     8f2:	51 10       	cpse	r5, r1
     8f4:	5a 94       	dec	r5
     8f6:	01 50       	subi	r16, 0x01	; 1
     8f8:	11 09       	sbc	r17, r1
     8fa:	01 15       	cp	r16, r1
     8fc:	11 05       	cpc	r17, r1
     8fe:	79 f7       	brne	.-34     	; 0x8de <__stack+0x7f>
     900:	f7 c0       	rjmp	.+494    	; 0xaf0 <__stack+0x291>
     902:	84 36       	cpi	r24, 0x64	; 100
     904:	11 f0       	breq	.+4      	; 0x90a <__stack+0xab>
     906:	89 36       	cpi	r24, 0x69	; 105
     908:	61 f5       	brne	.+88     	; 0x962 <__stack+0x103>
     90a:	56 01       	movw	r10, r12
     90c:	97 fe       	sbrs	r9, 7
     90e:	09 c0       	rjmp	.+18     	; 0x922 <__stack+0xc3>
     910:	24 e0       	ldi	r18, 0x04	; 4
     912:	a2 0e       	add	r10, r18
     914:	b1 1c       	adc	r11, r1
     916:	f6 01       	movw	r30, r12
     918:	60 81       	ld	r22, Z
     91a:	71 81       	ldd	r23, Z+1	; 0x01
     91c:	82 81       	ldd	r24, Z+2	; 0x02
     91e:	93 81       	ldd	r25, Z+3	; 0x03
     920:	0a c0       	rjmp	.+20     	; 0x936 <__stack+0xd7>
     922:	f2 e0       	ldi	r31, 0x02	; 2
     924:	af 0e       	add	r10, r31
     926:	b1 1c       	adc	r11, r1
     928:	f6 01       	movw	r30, r12
     92a:	60 81       	ld	r22, Z
     92c:	71 81       	ldd	r23, Z+1	; 0x01
     92e:	07 2e       	mov	r0, r23
     930:	00 0c       	add	r0, r0
     932:	88 0b       	sbc	r24, r24
     934:	99 0b       	sbc	r25, r25
     936:	f9 2d       	mov	r31, r9
     938:	ff 76       	andi	r31, 0x6F	; 111
     93a:	9f 2e       	mov	r9, r31
     93c:	97 ff       	sbrs	r25, 7
     93e:	09 c0       	rjmp	.+18     	; 0x952 <__stack+0xf3>
     940:	90 95       	com	r25
     942:	80 95       	com	r24
     944:	70 95       	com	r23
     946:	61 95       	neg	r22
     948:	7f 4f       	sbci	r23, 0xFF	; 255
     94a:	8f 4f       	sbci	r24, 0xFF	; 255
     94c:	9f 4f       	sbci	r25, 0xFF	; 255
     94e:	f0 68       	ori	r31, 0x80	; 128
     950:	9f 2e       	mov	r9, r31
     952:	2a e0       	ldi	r18, 0x0A	; 10
     954:	30 e0       	ldi	r19, 0x00	; 0
     956:	a3 01       	movw	r20, r6
     958:	0e 94 2e 08 	call	0x105c	; 0x105c <__ultoa_invert>
     95c:	c8 2e       	mov	r12, r24
     95e:	c6 18       	sub	r12, r6
     960:	3f c0       	rjmp	.+126    	; 0x9e0 <__stack+0x181>
     962:	09 2d       	mov	r16, r9
     964:	85 37       	cpi	r24, 0x75	; 117
     966:	21 f4       	brne	.+8      	; 0x970 <__stack+0x111>
     968:	0f 7e       	andi	r16, 0xEF	; 239
     96a:	2a e0       	ldi	r18, 0x0A	; 10
     96c:	30 e0       	ldi	r19, 0x00	; 0
     96e:	1d c0       	rjmp	.+58     	; 0x9aa <__stack+0x14b>
     970:	09 7f       	andi	r16, 0xF9	; 249
     972:	8f 36       	cpi	r24, 0x6F	; 111
     974:	91 f0       	breq	.+36     	; 0x99a <__stack+0x13b>
     976:	18 f4       	brcc	.+6      	; 0x97e <__stack+0x11f>
     978:	88 35       	cpi	r24, 0x58	; 88
     97a:	59 f0       	breq	.+22     	; 0x992 <__stack+0x133>
     97c:	c3 c0       	rjmp	.+390    	; 0xb04 <__stack+0x2a5>
     97e:	80 37       	cpi	r24, 0x70	; 112
     980:	19 f0       	breq	.+6      	; 0x988 <__stack+0x129>
     982:	88 37       	cpi	r24, 0x78	; 120
     984:	11 f0       	breq	.+4      	; 0x98a <__stack+0x12b>
     986:	be c0       	rjmp	.+380    	; 0xb04 <__stack+0x2a5>
     988:	00 61       	ori	r16, 0x10	; 16
     98a:	04 ff       	sbrs	r16, 4
     98c:	09 c0       	rjmp	.+18     	; 0x9a0 <__stack+0x141>
     98e:	04 60       	ori	r16, 0x04	; 4
     990:	07 c0       	rjmp	.+14     	; 0x9a0 <__stack+0x141>
     992:	94 fe       	sbrs	r9, 4
     994:	08 c0       	rjmp	.+16     	; 0x9a6 <__stack+0x147>
     996:	06 60       	ori	r16, 0x06	; 6
     998:	06 c0       	rjmp	.+12     	; 0x9a6 <__stack+0x147>
     99a:	28 e0       	ldi	r18, 0x08	; 8
     99c:	30 e0       	ldi	r19, 0x00	; 0
     99e:	05 c0       	rjmp	.+10     	; 0x9aa <__stack+0x14b>
     9a0:	20 e1       	ldi	r18, 0x10	; 16
     9a2:	30 e0       	ldi	r19, 0x00	; 0
     9a4:	02 c0       	rjmp	.+4      	; 0x9aa <__stack+0x14b>
     9a6:	20 e1       	ldi	r18, 0x10	; 16
     9a8:	32 e0       	ldi	r19, 0x02	; 2
     9aa:	56 01       	movw	r10, r12
     9ac:	07 ff       	sbrs	r16, 7
     9ae:	09 c0       	rjmp	.+18     	; 0x9c2 <__stack+0x163>
     9b0:	84 e0       	ldi	r24, 0x04	; 4
     9b2:	a8 0e       	add	r10, r24
     9b4:	b1 1c       	adc	r11, r1
     9b6:	f6 01       	movw	r30, r12
     9b8:	60 81       	ld	r22, Z
     9ba:	71 81       	ldd	r23, Z+1	; 0x01
     9bc:	82 81       	ldd	r24, Z+2	; 0x02
     9be:	93 81       	ldd	r25, Z+3	; 0x03
     9c0:	08 c0       	rjmp	.+16     	; 0x9d2 <__stack+0x173>
     9c2:	f2 e0       	ldi	r31, 0x02	; 2
     9c4:	af 0e       	add	r10, r31
     9c6:	b1 1c       	adc	r11, r1
     9c8:	f6 01       	movw	r30, r12
     9ca:	60 81       	ld	r22, Z
     9cc:	71 81       	ldd	r23, Z+1	; 0x01
     9ce:	80 e0       	ldi	r24, 0x00	; 0
     9d0:	90 e0       	ldi	r25, 0x00	; 0
     9d2:	a3 01       	movw	r20, r6
     9d4:	0e 94 2e 08 	call	0x105c	; 0x105c <__ultoa_invert>
     9d8:	c8 2e       	mov	r12, r24
     9da:	c6 18       	sub	r12, r6
     9dc:	0f 77       	andi	r16, 0x7F	; 127
     9de:	90 2e       	mov	r9, r16
     9e0:	96 fe       	sbrs	r9, 6
     9e2:	0b c0       	rjmp	.+22     	; 0x9fa <__stack+0x19b>
     9e4:	09 2d       	mov	r16, r9
     9e6:	0e 7f       	andi	r16, 0xFE	; 254
     9e8:	c1 16       	cp	r12, r17
     9ea:	50 f4       	brcc	.+20     	; 0xa00 <__stack+0x1a1>
     9ec:	94 fe       	sbrs	r9, 4
     9ee:	0a c0       	rjmp	.+20     	; 0xa04 <__stack+0x1a5>
     9f0:	92 fc       	sbrc	r9, 2
     9f2:	08 c0       	rjmp	.+16     	; 0xa04 <__stack+0x1a5>
     9f4:	09 2d       	mov	r16, r9
     9f6:	0e 7e       	andi	r16, 0xEE	; 238
     9f8:	05 c0       	rjmp	.+10     	; 0xa04 <__stack+0x1a5>
     9fa:	dc 2c       	mov	r13, r12
     9fc:	09 2d       	mov	r16, r9
     9fe:	03 c0       	rjmp	.+6      	; 0xa06 <__stack+0x1a7>
     a00:	dc 2c       	mov	r13, r12
     a02:	01 c0       	rjmp	.+2      	; 0xa06 <__stack+0x1a7>
     a04:	d1 2e       	mov	r13, r17
     a06:	04 ff       	sbrs	r16, 4
     a08:	0d c0       	rjmp	.+26     	; 0xa24 <__stack+0x1c5>
     a0a:	fe 01       	movw	r30, r28
     a0c:	ec 0d       	add	r30, r12
     a0e:	f1 1d       	adc	r31, r1
     a10:	80 81       	ld	r24, Z
     a12:	80 33       	cpi	r24, 0x30	; 48
     a14:	11 f4       	brne	.+4      	; 0xa1a <__stack+0x1bb>
     a16:	09 7e       	andi	r16, 0xE9	; 233
     a18:	09 c0       	rjmp	.+18     	; 0xa2c <__stack+0x1cd>
     a1a:	02 ff       	sbrs	r16, 2
     a1c:	06 c0       	rjmp	.+12     	; 0xa2a <__stack+0x1cb>
     a1e:	d3 94       	inc	r13
     a20:	d3 94       	inc	r13
     a22:	04 c0       	rjmp	.+8      	; 0xa2c <__stack+0x1cd>
     a24:	80 2f       	mov	r24, r16
     a26:	86 78       	andi	r24, 0x86	; 134
     a28:	09 f0       	breq	.+2      	; 0xa2c <__stack+0x1cd>
     a2a:	d3 94       	inc	r13
     a2c:	03 fd       	sbrc	r16, 3
     a2e:	11 c0       	rjmp	.+34     	; 0xa52 <__stack+0x1f3>
     a30:	00 ff       	sbrs	r16, 0
     a32:	06 c0       	rjmp	.+12     	; 0xa40 <__stack+0x1e1>
     a34:	1c 2d       	mov	r17, r12
     a36:	d5 14       	cp	r13, r5
     a38:	80 f4       	brcc	.+32     	; 0xa5a <__stack+0x1fb>
     a3a:	15 0d       	add	r17, r5
     a3c:	1d 19       	sub	r17, r13
     a3e:	0d c0       	rjmp	.+26     	; 0xa5a <__stack+0x1fb>
     a40:	d5 14       	cp	r13, r5
     a42:	58 f4       	brcc	.+22     	; 0xa5a <__stack+0x1fb>
     a44:	b7 01       	movw	r22, r14
     a46:	80 e2       	ldi	r24, 0x20	; 32
     a48:	90 e0       	ldi	r25, 0x00	; 0
     a4a:	0e 94 d0 07 	call	0xfa0	; 0xfa0 <fputc>
     a4e:	d3 94       	inc	r13
     a50:	f7 cf       	rjmp	.-18     	; 0xa40 <__stack+0x1e1>
     a52:	d5 14       	cp	r13, r5
     a54:	10 f4       	brcc	.+4      	; 0xa5a <__stack+0x1fb>
     a56:	5d 18       	sub	r5, r13
     a58:	01 c0       	rjmp	.+2      	; 0xa5c <__stack+0x1fd>
     a5a:	51 2c       	mov	r5, r1
     a5c:	04 ff       	sbrs	r16, 4
     a5e:	10 c0       	rjmp	.+32     	; 0xa80 <__stack+0x221>
     a60:	b7 01       	movw	r22, r14
     a62:	80 e3       	ldi	r24, 0x30	; 48
     a64:	90 e0       	ldi	r25, 0x00	; 0
     a66:	0e 94 d0 07 	call	0xfa0	; 0xfa0 <fputc>
     a6a:	02 ff       	sbrs	r16, 2
     a6c:	17 c0       	rjmp	.+46     	; 0xa9c <__stack+0x23d>
     a6e:	01 fd       	sbrc	r16, 1
     a70:	03 c0       	rjmp	.+6      	; 0xa78 <__stack+0x219>
     a72:	88 e7       	ldi	r24, 0x78	; 120
     a74:	90 e0       	ldi	r25, 0x00	; 0
     a76:	02 c0       	rjmp	.+4      	; 0xa7c <__stack+0x21d>
     a78:	88 e5       	ldi	r24, 0x58	; 88
     a7a:	90 e0       	ldi	r25, 0x00	; 0
     a7c:	b7 01       	movw	r22, r14
     a7e:	0c c0       	rjmp	.+24     	; 0xa98 <__stack+0x239>
     a80:	80 2f       	mov	r24, r16
     a82:	86 78       	andi	r24, 0x86	; 134
     a84:	59 f0       	breq	.+22     	; 0xa9c <__stack+0x23d>
     a86:	01 ff       	sbrs	r16, 1
     a88:	02 c0       	rjmp	.+4      	; 0xa8e <__stack+0x22f>
     a8a:	8b e2       	ldi	r24, 0x2B	; 43
     a8c:	01 c0       	rjmp	.+2      	; 0xa90 <__stack+0x231>
     a8e:	80 e2       	ldi	r24, 0x20	; 32
     a90:	07 fd       	sbrc	r16, 7
     a92:	8d e2       	ldi	r24, 0x2D	; 45
     a94:	b7 01       	movw	r22, r14
     a96:	90 e0       	ldi	r25, 0x00	; 0
     a98:	0e 94 d0 07 	call	0xfa0	; 0xfa0 <fputc>
     a9c:	c1 16       	cp	r12, r17
     a9e:	38 f4       	brcc	.+14     	; 0xaae <__stack+0x24f>
     aa0:	b7 01       	movw	r22, r14
     aa2:	80 e3       	ldi	r24, 0x30	; 48
     aa4:	90 e0       	ldi	r25, 0x00	; 0
     aa6:	0e 94 d0 07 	call	0xfa0	; 0xfa0 <fputc>
     aaa:	11 50       	subi	r17, 0x01	; 1
     aac:	f7 cf       	rjmp	.-18     	; 0xa9c <__stack+0x23d>
     aae:	ca 94       	dec	r12
     ab0:	f3 01       	movw	r30, r6
     ab2:	ec 0d       	add	r30, r12
     ab4:	f1 1d       	adc	r31, r1
     ab6:	80 81       	ld	r24, Z
     ab8:	b7 01       	movw	r22, r14
     aba:	90 e0       	ldi	r25, 0x00	; 0
     abc:	0e 94 d0 07 	call	0xfa0	; 0xfa0 <fputc>
     ac0:	c1 10       	cpse	r12, r1
     ac2:	f5 cf       	rjmp	.-22     	; 0xaae <__stack+0x24f>
     ac4:	15 c0       	rjmp	.+42     	; 0xaf0 <__stack+0x291>
     ac6:	f4 e0       	ldi	r31, 0x04	; 4
     ac8:	f5 15       	cp	r31, r5
     aca:	60 f5       	brcc	.+88     	; 0xb24 <__stack+0x2c5>
     acc:	84 e0       	ldi	r24, 0x04	; 4
     ace:	58 1a       	sub	r5, r24
     ad0:	93 fe       	sbrs	r9, 3
     ad2:	1f c0       	rjmp	.+62     	; 0xb12 <__stack+0x2b3>
     ad4:	01 11       	cpse	r16, r1
     ad6:	27 c0       	rjmp	.+78     	; 0xb26 <__stack+0x2c7>
     ad8:	2c 85       	ldd	r18, Y+12	; 0x0c
     ada:	23 ff       	sbrs	r18, 3
     adc:	2a c0       	rjmp	.+84     	; 0xb32 <__stack+0x2d3>
     ade:	04 e5       	ldi	r16, 0x54	; 84
     ae0:	10 e0       	ldi	r17, 0x00	; 0
     ae2:	39 2d       	mov	r19, r9
     ae4:	30 71       	andi	r19, 0x10	; 16
     ae6:	93 2e       	mov	r9, r19
     ae8:	f8 01       	movw	r30, r16
     aea:	84 91       	lpm	r24, Z
     aec:	81 11       	cpse	r24, r1
     aee:	24 c0       	rjmp	.+72     	; 0xb38 <__stack+0x2d9>
     af0:	55 20       	and	r5, r5
     af2:	09 f4       	brne	.+2      	; 0xaf6 <__stack+0x297>
     af4:	e4 cc       	rjmp	.-1592   	; 0x4be <vfprintf+0x58>
     af6:	b7 01       	movw	r22, r14
     af8:	80 e2       	ldi	r24, 0x20	; 32
     afa:	90 e0       	ldi	r25, 0x00	; 0
     afc:	0e 94 d0 07 	call	0xfa0	; 0xfa0 <fputc>
     b00:	5a 94       	dec	r5
     b02:	f6 cf       	rjmp	.-20     	; 0xaf0 <__stack+0x291>
     b04:	f7 01       	movw	r30, r14
     b06:	86 81       	ldd	r24, Z+6	; 0x06
     b08:	97 81       	ldd	r25, Z+7	; 0x07
     b0a:	26 c0       	rjmp	.+76     	; 0xb58 <__stack+0x2f9>
     b0c:	8f ef       	ldi	r24, 0xFF	; 255
     b0e:	9f ef       	ldi	r25, 0xFF	; 255
     b10:	23 c0       	rjmp	.+70     	; 0xb58 <__stack+0x2f9>
     b12:	b7 01       	movw	r22, r14
     b14:	80 e2       	ldi	r24, 0x20	; 32
     b16:	90 e0       	ldi	r25, 0x00	; 0
     b18:	0e 94 d0 07 	call	0xfa0	; 0xfa0 <fputc>
     b1c:	5a 94       	dec	r5
     b1e:	51 10       	cpse	r5, r1
     b20:	f8 cf       	rjmp	.-16     	; 0xb12 <__stack+0x2b3>
     b22:	d8 cf       	rjmp	.-80     	; 0xad4 <__stack+0x275>
     b24:	51 2c       	mov	r5, r1
     b26:	b7 01       	movw	r22, r14
     b28:	80 2f       	mov	r24, r16
     b2a:	90 e0       	ldi	r25, 0x00	; 0
     b2c:	0e 94 d0 07 	call	0xfa0	; 0xfa0 <fputc>
     b30:	d3 cf       	rjmp	.-90     	; 0xad8 <__stack+0x279>
     b32:	08 e5       	ldi	r16, 0x58	; 88
     b34:	10 e0       	ldi	r17, 0x00	; 0
     b36:	d5 cf       	rjmp	.-86     	; 0xae2 <__stack+0x283>
     b38:	91 10       	cpse	r9, r1
     b3a:	80 52       	subi	r24, 0x20	; 32
     b3c:	b7 01       	movw	r22, r14
     b3e:	90 e0       	ldi	r25, 0x00	; 0
     b40:	0e 94 d0 07 	call	0xfa0	; 0xfa0 <fputc>
     b44:	0f 5f       	subi	r16, 0xFF	; 255
     b46:	1f 4f       	sbci	r17, 0xFF	; 255
     b48:	cf cf       	rjmp	.-98     	; 0xae8 <__stack+0x289>
     b4a:	23 e0       	ldi	r18, 0x03	; 3
     b4c:	25 15       	cp	r18, r5
     b4e:	10 f4       	brcc	.+4      	; 0xb54 <__stack+0x2f5>
     b50:	83 e0       	ldi	r24, 0x03	; 3
     b52:	bd cf       	rjmp	.-134    	; 0xace <__stack+0x26f>
     b54:	51 2c       	mov	r5, r1
     b56:	c0 cf       	rjmp	.-128    	; 0xad8 <__stack+0x279>
     b58:	60 96       	adiw	r28, 0x10	; 16
     b5a:	e2 e1       	ldi	r30, 0x12	; 18
     b5c:	0c 94 c7 06 	jmp	0xd8e	; 0xd8e <__epilogue_restores__>

00000b60 <__floatunsisf>:
     b60:	e8 94       	clt
     b62:	09 c0       	rjmp	.+18     	; 0xb76 <__floatsisf+0x12>

00000b64 <__floatsisf>:
     b64:	97 fb       	bst	r25, 7
     b66:	3e f4       	brtc	.+14     	; 0xb76 <__floatsisf+0x12>
     b68:	90 95       	com	r25
     b6a:	80 95       	com	r24
     b6c:	70 95       	com	r23
     b6e:	61 95       	neg	r22
     b70:	7f 4f       	sbci	r23, 0xFF	; 255
     b72:	8f 4f       	sbci	r24, 0xFF	; 255
     b74:	9f 4f       	sbci	r25, 0xFF	; 255
     b76:	99 23       	and	r25, r25
     b78:	a9 f0       	breq	.+42     	; 0xba4 <__floatsisf+0x40>
     b7a:	f9 2f       	mov	r31, r25
     b7c:	96 e9       	ldi	r25, 0x96	; 150
     b7e:	bb 27       	eor	r27, r27
     b80:	93 95       	inc	r25
     b82:	f6 95       	lsr	r31
     b84:	87 95       	ror	r24
     b86:	77 95       	ror	r23
     b88:	67 95       	ror	r22
     b8a:	b7 95       	ror	r27
     b8c:	f1 11       	cpse	r31, r1
     b8e:	f8 cf       	rjmp	.-16     	; 0xb80 <__floatsisf+0x1c>
     b90:	fa f4       	brpl	.+62     	; 0xbd0 <__floatsisf+0x6c>
     b92:	bb 0f       	add	r27, r27
     b94:	11 f4       	brne	.+4      	; 0xb9a <__floatsisf+0x36>
     b96:	60 ff       	sbrs	r22, 0
     b98:	1b c0       	rjmp	.+54     	; 0xbd0 <__floatsisf+0x6c>
     b9a:	6f 5f       	subi	r22, 0xFF	; 255
     b9c:	7f 4f       	sbci	r23, 0xFF	; 255
     b9e:	8f 4f       	sbci	r24, 0xFF	; 255
     ba0:	9f 4f       	sbci	r25, 0xFF	; 255
     ba2:	16 c0       	rjmp	.+44     	; 0xbd0 <__floatsisf+0x6c>
     ba4:	88 23       	and	r24, r24
     ba6:	11 f0       	breq	.+4      	; 0xbac <__floatsisf+0x48>
     ba8:	96 e9       	ldi	r25, 0x96	; 150
     baa:	11 c0       	rjmp	.+34     	; 0xbce <__floatsisf+0x6a>
     bac:	77 23       	and	r23, r23
     bae:	21 f0       	breq	.+8      	; 0xbb8 <__floatsisf+0x54>
     bb0:	9e e8       	ldi	r25, 0x8E	; 142
     bb2:	87 2f       	mov	r24, r23
     bb4:	76 2f       	mov	r23, r22
     bb6:	05 c0       	rjmp	.+10     	; 0xbc2 <__floatsisf+0x5e>
     bb8:	66 23       	and	r22, r22
     bba:	71 f0       	breq	.+28     	; 0xbd8 <__floatsisf+0x74>
     bbc:	96 e8       	ldi	r25, 0x86	; 134
     bbe:	86 2f       	mov	r24, r22
     bc0:	70 e0       	ldi	r23, 0x00	; 0
     bc2:	60 e0       	ldi	r22, 0x00	; 0
     bc4:	2a f0       	brmi	.+10     	; 0xbd0 <__floatsisf+0x6c>
     bc6:	9a 95       	dec	r25
     bc8:	66 0f       	add	r22, r22
     bca:	77 1f       	adc	r23, r23
     bcc:	88 1f       	adc	r24, r24
     bce:	da f7       	brpl	.-10     	; 0xbc6 <__floatsisf+0x62>
     bd0:	88 0f       	add	r24, r24
     bd2:	96 95       	lsr	r25
     bd4:	87 95       	ror	r24
     bd6:	97 f9       	bld	r25, 7
     bd8:	08 95       	ret

00000bda <__mulsf3>:
     bda:	0e 94 00 06 	call	0xc00	; 0xc00 <__mulsf3x>
     bde:	0c 94 71 06 	jmp	0xce2	; 0xce2 <__fp_round>
     be2:	0e 94 63 06 	call	0xcc6	; 0xcc6 <__fp_pscA>
     be6:	38 f0       	brcs	.+14     	; 0xbf6 <__mulsf3+0x1c>
     be8:	0e 94 6a 06 	call	0xcd4	; 0xcd4 <__fp_pscB>
     bec:	20 f0       	brcs	.+8      	; 0xbf6 <__mulsf3+0x1c>
     bee:	95 23       	and	r25, r21
     bf0:	11 f0       	breq	.+4      	; 0xbf6 <__mulsf3+0x1c>
     bf2:	0c 94 5a 06 	jmp	0xcb4	; 0xcb4 <__fp_inf>
     bf6:	0c 94 60 06 	jmp	0xcc0	; 0xcc0 <__fp_nan>
     bfa:	11 24       	eor	r1, r1
     bfc:	0c 94 a5 06 	jmp	0xd4a	; 0xd4a <__fp_szero>

00000c00 <__mulsf3x>:
     c00:	0e 94 82 06 	call	0xd04	; 0xd04 <__fp_split3>
     c04:	70 f3       	brcs	.-36     	; 0xbe2 <__mulsf3+0x8>

00000c06 <__mulsf3_pse>:
     c06:	95 9f       	mul	r25, r21
     c08:	c1 f3       	breq	.-16     	; 0xbfa <__mulsf3+0x20>
     c0a:	95 0f       	add	r25, r21
     c0c:	50 e0       	ldi	r21, 0x00	; 0
     c0e:	55 1f       	adc	r21, r21
     c10:	62 9f       	mul	r22, r18
     c12:	f0 01       	movw	r30, r0
     c14:	72 9f       	mul	r23, r18
     c16:	bb 27       	eor	r27, r27
     c18:	f0 0d       	add	r31, r0
     c1a:	b1 1d       	adc	r27, r1
     c1c:	63 9f       	mul	r22, r19
     c1e:	aa 27       	eor	r26, r26
     c20:	f0 0d       	add	r31, r0
     c22:	b1 1d       	adc	r27, r1
     c24:	aa 1f       	adc	r26, r26
     c26:	64 9f       	mul	r22, r20
     c28:	66 27       	eor	r22, r22
     c2a:	b0 0d       	add	r27, r0
     c2c:	a1 1d       	adc	r26, r1
     c2e:	66 1f       	adc	r22, r22
     c30:	82 9f       	mul	r24, r18
     c32:	22 27       	eor	r18, r18
     c34:	b0 0d       	add	r27, r0
     c36:	a1 1d       	adc	r26, r1
     c38:	62 1f       	adc	r22, r18
     c3a:	73 9f       	mul	r23, r19
     c3c:	b0 0d       	add	r27, r0
     c3e:	a1 1d       	adc	r26, r1
     c40:	62 1f       	adc	r22, r18
     c42:	83 9f       	mul	r24, r19
     c44:	a0 0d       	add	r26, r0
     c46:	61 1d       	adc	r22, r1
     c48:	22 1f       	adc	r18, r18
     c4a:	74 9f       	mul	r23, r20
     c4c:	33 27       	eor	r19, r19
     c4e:	a0 0d       	add	r26, r0
     c50:	61 1d       	adc	r22, r1
     c52:	23 1f       	adc	r18, r19
     c54:	84 9f       	mul	r24, r20
     c56:	60 0d       	add	r22, r0
     c58:	21 1d       	adc	r18, r1
     c5a:	82 2f       	mov	r24, r18
     c5c:	76 2f       	mov	r23, r22
     c5e:	6a 2f       	mov	r22, r26
     c60:	11 24       	eor	r1, r1
     c62:	9f 57       	subi	r25, 0x7F	; 127
     c64:	50 40       	sbci	r21, 0x00	; 0
     c66:	9a f0       	brmi	.+38     	; 0xc8e <__mulsf3_pse+0x88>
     c68:	f1 f0       	breq	.+60     	; 0xca6 <__mulsf3_pse+0xa0>
     c6a:	88 23       	and	r24, r24
     c6c:	4a f0       	brmi	.+18     	; 0xc80 <__mulsf3_pse+0x7a>
     c6e:	ee 0f       	add	r30, r30
     c70:	ff 1f       	adc	r31, r31
     c72:	bb 1f       	adc	r27, r27
     c74:	66 1f       	adc	r22, r22
     c76:	77 1f       	adc	r23, r23
     c78:	88 1f       	adc	r24, r24
     c7a:	91 50       	subi	r25, 0x01	; 1
     c7c:	50 40       	sbci	r21, 0x00	; 0
     c7e:	a9 f7       	brne	.-22     	; 0xc6a <__mulsf3_pse+0x64>
     c80:	9e 3f       	cpi	r25, 0xFE	; 254
     c82:	51 05       	cpc	r21, r1
     c84:	80 f0       	brcs	.+32     	; 0xca6 <__mulsf3_pse+0xa0>
     c86:	0c 94 5a 06 	jmp	0xcb4	; 0xcb4 <__fp_inf>
     c8a:	0c 94 a5 06 	jmp	0xd4a	; 0xd4a <__fp_szero>
     c8e:	5f 3f       	cpi	r21, 0xFF	; 255
     c90:	e4 f3       	brlt	.-8      	; 0xc8a <__mulsf3_pse+0x84>
     c92:	98 3e       	cpi	r25, 0xE8	; 232
     c94:	d4 f3       	brlt	.-12     	; 0xc8a <__mulsf3_pse+0x84>
     c96:	86 95       	lsr	r24
     c98:	77 95       	ror	r23
     c9a:	67 95       	ror	r22
     c9c:	b7 95       	ror	r27
     c9e:	f7 95       	ror	r31
     ca0:	e7 95       	ror	r30
     ca2:	9f 5f       	subi	r25, 0xFF	; 255
     ca4:	c1 f7       	brne	.-16     	; 0xc96 <__mulsf3_pse+0x90>
     ca6:	fe 2b       	or	r31, r30
     ca8:	88 0f       	add	r24, r24
     caa:	91 1d       	adc	r25, r1
     cac:	96 95       	lsr	r25
     cae:	87 95       	ror	r24
     cb0:	97 f9       	bld	r25, 7
     cb2:	08 95       	ret

00000cb4 <__fp_inf>:
     cb4:	97 f9       	bld	r25, 7
     cb6:	9f 67       	ori	r25, 0x7F	; 127
     cb8:	80 e8       	ldi	r24, 0x80	; 128
     cba:	70 e0       	ldi	r23, 0x00	; 0
     cbc:	60 e0       	ldi	r22, 0x00	; 0
     cbe:	08 95       	ret

00000cc0 <__fp_nan>:
     cc0:	9f ef       	ldi	r25, 0xFF	; 255
     cc2:	80 ec       	ldi	r24, 0xC0	; 192
     cc4:	08 95       	ret

00000cc6 <__fp_pscA>:
     cc6:	00 24       	eor	r0, r0
     cc8:	0a 94       	dec	r0
     cca:	16 16       	cp	r1, r22
     ccc:	17 06       	cpc	r1, r23
     cce:	18 06       	cpc	r1, r24
     cd0:	09 06       	cpc	r0, r25
     cd2:	08 95       	ret

00000cd4 <__fp_pscB>:
     cd4:	00 24       	eor	r0, r0
     cd6:	0a 94       	dec	r0
     cd8:	12 16       	cp	r1, r18
     cda:	13 06       	cpc	r1, r19
     cdc:	14 06       	cpc	r1, r20
     cde:	05 06       	cpc	r0, r21
     ce0:	08 95       	ret

00000ce2 <__fp_round>:
     ce2:	09 2e       	mov	r0, r25
     ce4:	03 94       	inc	r0
     ce6:	00 0c       	add	r0, r0
     ce8:	11 f4       	brne	.+4      	; 0xcee <__fp_round+0xc>
     cea:	88 23       	and	r24, r24
     cec:	52 f0       	brmi	.+20     	; 0xd02 <__fp_round+0x20>
     cee:	bb 0f       	add	r27, r27
     cf0:	40 f4       	brcc	.+16     	; 0xd02 <__fp_round+0x20>
     cf2:	bf 2b       	or	r27, r31
     cf4:	11 f4       	brne	.+4      	; 0xcfa <__fp_round+0x18>
     cf6:	60 ff       	sbrs	r22, 0
     cf8:	04 c0       	rjmp	.+8      	; 0xd02 <__fp_round+0x20>
     cfa:	6f 5f       	subi	r22, 0xFF	; 255
     cfc:	7f 4f       	sbci	r23, 0xFF	; 255
     cfe:	8f 4f       	sbci	r24, 0xFF	; 255
     d00:	9f 4f       	sbci	r25, 0xFF	; 255
     d02:	08 95       	ret

00000d04 <__fp_split3>:
     d04:	57 fd       	sbrc	r21, 7
     d06:	90 58       	subi	r25, 0x80	; 128
     d08:	44 0f       	add	r20, r20
     d0a:	55 1f       	adc	r21, r21
     d0c:	59 f0       	breq	.+22     	; 0xd24 <__fp_splitA+0x10>
     d0e:	5f 3f       	cpi	r21, 0xFF	; 255
     d10:	71 f0       	breq	.+28     	; 0xd2e <__fp_splitA+0x1a>
     d12:	47 95       	ror	r20

00000d14 <__fp_splitA>:
     d14:	88 0f       	add	r24, r24
     d16:	97 fb       	bst	r25, 7
     d18:	99 1f       	adc	r25, r25
     d1a:	61 f0       	breq	.+24     	; 0xd34 <__fp_splitA+0x20>
     d1c:	9f 3f       	cpi	r25, 0xFF	; 255
     d1e:	79 f0       	breq	.+30     	; 0xd3e <__fp_splitA+0x2a>
     d20:	87 95       	ror	r24
     d22:	08 95       	ret
     d24:	12 16       	cp	r1, r18
     d26:	13 06       	cpc	r1, r19
     d28:	14 06       	cpc	r1, r20
     d2a:	55 1f       	adc	r21, r21
     d2c:	f2 cf       	rjmp	.-28     	; 0xd12 <__fp_split3+0xe>
     d2e:	46 95       	lsr	r20
     d30:	f1 df       	rcall	.-30     	; 0xd14 <__fp_splitA>
     d32:	08 c0       	rjmp	.+16     	; 0xd44 <__fp_splitA+0x30>
     d34:	16 16       	cp	r1, r22
     d36:	17 06       	cpc	r1, r23
     d38:	18 06       	cpc	r1, r24
     d3a:	99 1f       	adc	r25, r25
     d3c:	f1 cf       	rjmp	.-30     	; 0xd20 <__fp_splitA+0xc>
     d3e:	86 95       	lsr	r24
     d40:	71 05       	cpc	r23, r1
     d42:	61 05       	cpc	r22, r1
     d44:	08 94       	sec
     d46:	08 95       	ret

00000d48 <__fp_zero>:
     d48:	e8 94       	clt

00000d4a <__fp_szero>:
     d4a:	bb 27       	eor	r27, r27
     d4c:	66 27       	eor	r22, r22
     d4e:	77 27       	eor	r23, r23
     d50:	cb 01       	movw	r24, r22
     d52:	97 f9       	bld	r25, 7
     d54:	08 95       	ret

00000d56 <__prologue_saves__>:
     d56:	2f 92       	push	r2
     d58:	3f 92       	push	r3
     d5a:	4f 92       	push	r4
     d5c:	5f 92       	push	r5
     d5e:	6f 92       	push	r6
     d60:	7f 92       	push	r7
     d62:	8f 92       	push	r8
     d64:	9f 92       	push	r9
     d66:	af 92       	push	r10
     d68:	bf 92       	push	r11
     d6a:	cf 92       	push	r12
     d6c:	df 92       	push	r13
     d6e:	ef 92       	push	r14
     d70:	ff 92       	push	r15
     d72:	0f 93       	push	r16
     d74:	1f 93       	push	r17
     d76:	cf 93       	push	r28
     d78:	df 93       	push	r29
     d7a:	cd b7       	in	r28, 0x3d	; 61
     d7c:	de b7       	in	r29, 0x3e	; 62
     d7e:	ca 1b       	sub	r28, r26
     d80:	db 0b       	sbc	r29, r27
     d82:	0f b6       	in	r0, 0x3f	; 63
     d84:	f8 94       	cli
     d86:	de bf       	out	0x3e, r29	; 62
     d88:	0f be       	out	0x3f, r0	; 63
     d8a:	cd bf       	out	0x3d, r28	; 61
     d8c:	09 94       	ijmp

00000d8e <__epilogue_restores__>:
     d8e:	2a 88       	ldd	r2, Y+18	; 0x12
     d90:	39 88       	ldd	r3, Y+17	; 0x11
     d92:	48 88       	ldd	r4, Y+16	; 0x10
     d94:	5f 84       	ldd	r5, Y+15	; 0x0f
     d96:	6e 84       	ldd	r6, Y+14	; 0x0e
     d98:	7d 84       	ldd	r7, Y+13	; 0x0d
     d9a:	8c 84       	ldd	r8, Y+12	; 0x0c
     d9c:	9b 84       	ldd	r9, Y+11	; 0x0b
     d9e:	aa 84       	ldd	r10, Y+10	; 0x0a
     da0:	b9 84       	ldd	r11, Y+9	; 0x09
     da2:	c8 84       	ldd	r12, Y+8	; 0x08
     da4:	df 80       	ldd	r13, Y+7	; 0x07
     da6:	ee 80       	ldd	r14, Y+6	; 0x06
     da8:	fd 80       	ldd	r15, Y+5	; 0x05
     daa:	0c 81       	ldd	r16, Y+4	; 0x04
     dac:	1b 81       	ldd	r17, Y+3	; 0x03
     dae:	aa 81       	ldd	r26, Y+2	; 0x02
     db0:	b9 81       	ldd	r27, Y+1	; 0x01
     db2:	ce 0f       	add	r28, r30
     db4:	d1 1d       	adc	r29, r1
     db6:	0f b6       	in	r0, 0x3f	; 63
     db8:	f8 94       	cli
     dba:	de bf       	out	0x3e, r29	; 62
     dbc:	0f be       	out	0x3f, r0	; 63
     dbe:	cd bf       	out	0x3d, r28	; 61
     dc0:	ed 01       	movw	r28, r26
     dc2:	08 95       	ret

00000dc4 <__ftoa_engine>:
     dc4:	28 30       	cpi	r18, 0x08	; 8
     dc6:	08 f0       	brcs	.+2      	; 0xdca <__ftoa_engine+0x6>
     dc8:	27 e0       	ldi	r18, 0x07	; 7
     dca:	33 27       	eor	r19, r19
     dcc:	da 01       	movw	r26, r20
     dce:	99 0f       	add	r25, r25
     dd0:	31 1d       	adc	r19, r1
     dd2:	87 fd       	sbrc	r24, 7
     dd4:	91 60       	ori	r25, 0x01	; 1
     dd6:	00 96       	adiw	r24, 0x00	; 0
     dd8:	61 05       	cpc	r22, r1
     dda:	71 05       	cpc	r23, r1
     ddc:	39 f4       	brne	.+14     	; 0xdec <__ftoa_engine+0x28>
     dde:	32 60       	ori	r19, 0x02	; 2
     de0:	2e 5f       	subi	r18, 0xFE	; 254
     de2:	3d 93       	st	X+, r19
     de4:	30 e3       	ldi	r19, 0x30	; 48
     de6:	2a 95       	dec	r18
     de8:	e1 f7       	brne	.-8      	; 0xde2 <__ftoa_engine+0x1e>
     dea:	08 95       	ret
     dec:	9f 3f       	cpi	r25, 0xFF	; 255
     dee:	30 f0       	brcs	.+12     	; 0xdfc <__ftoa_engine+0x38>
     df0:	80 38       	cpi	r24, 0x80	; 128
     df2:	71 05       	cpc	r23, r1
     df4:	61 05       	cpc	r22, r1
     df6:	09 f0       	breq	.+2      	; 0xdfa <__ftoa_engine+0x36>
     df8:	3c 5f       	subi	r19, 0xFC	; 252
     dfa:	3c 5f       	subi	r19, 0xFC	; 252
     dfc:	3d 93       	st	X+, r19
     dfe:	91 30       	cpi	r25, 0x01	; 1
     e00:	08 f0       	brcs	.+2      	; 0xe04 <__ftoa_engine+0x40>
     e02:	80 68       	ori	r24, 0x80	; 128
     e04:	91 1d       	adc	r25, r1
     e06:	df 93       	push	r29
     e08:	cf 93       	push	r28
     e0a:	1f 93       	push	r17
     e0c:	0f 93       	push	r16
     e0e:	ff 92       	push	r15
     e10:	ef 92       	push	r14
     e12:	19 2f       	mov	r17, r25
     e14:	98 7f       	andi	r25, 0xF8	; 248
     e16:	96 95       	lsr	r25
     e18:	e9 2f       	mov	r30, r25
     e1a:	96 95       	lsr	r25
     e1c:	96 95       	lsr	r25
     e1e:	e9 0f       	add	r30, r25
     e20:	ff 27       	eor	r31, r31
     e22:	ea 54       	subi	r30, 0x4A	; 74
     e24:	ff 4f       	sbci	r31, 0xFF	; 255
     e26:	99 27       	eor	r25, r25
     e28:	33 27       	eor	r19, r19
     e2a:	ee 24       	eor	r14, r14
     e2c:	ff 24       	eor	r15, r15
     e2e:	a7 01       	movw	r20, r14
     e30:	e7 01       	movw	r28, r14
     e32:	05 90       	lpm	r0, Z+
     e34:	08 94       	sec
     e36:	07 94       	ror	r0
     e38:	28 f4       	brcc	.+10     	; 0xe44 <__ftoa_engine+0x80>
     e3a:	36 0f       	add	r19, r22
     e3c:	e7 1e       	adc	r14, r23
     e3e:	f8 1e       	adc	r15, r24
     e40:	49 1f       	adc	r20, r25
     e42:	51 1d       	adc	r21, r1
     e44:	66 0f       	add	r22, r22
     e46:	77 1f       	adc	r23, r23
     e48:	88 1f       	adc	r24, r24
     e4a:	99 1f       	adc	r25, r25
     e4c:	06 94       	lsr	r0
     e4e:	a1 f7       	brne	.-24     	; 0xe38 <__ftoa_engine+0x74>
     e50:	05 90       	lpm	r0, Z+
     e52:	07 94       	ror	r0
     e54:	28 f4       	brcc	.+10     	; 0xe60 <__ftoa_engine+0x9c>
     e56:	e7 0e       	add	r14, r23
     e58:	f8 1e       	adc	r15, r24
     e5a:	49 1f       	adc	r20, r25
     e5c:	56 1f       	adc	r21, r22
     e5e:	c1 1d       	adc	r28, r1
     e60:	77 0f       	add	r23, r23
     e62:	88 1f       	adc	r24, r24
     e64:	99 1f       	adc	r25, r25
     e66:	66 1f       	adc	r22, r22
     e68:	06 94       	lsr	r0
     e6a:	a1 f7       	brne	.-24     	; 0xe54 <__ftoa_engine+0x90>
     e6c:	05 90       	lpm	r0, Z+
     e6e:	07 94       	ror	r0
     e70:	28 f4       	brcc	.+10     	; 0xe7c <__ftoa_engine+0xb8>
     e72:	f8 0e       	add	r15, r24
     e74:	49 1f       	adc	r20, r25
     e76:	56 1f       	adc	r21, r22
     e78:	c7 1f       	adc	r28, r23
     e7a:	d1 1d       	adc	r29, r1
     e7c:	88 0f       	add	r24, r24
     e7e:	99 1f       	adc	r25, r25
     e80:	66 1f       	adc	r22, r22
     e82:	77 1f       	adc	r23, r23
     e84:	06 94       	lsr	r0
     e86:	a1 f7       	brne	.-24     	; 0xe70 <__ftoa_engine+0xac>
     e88:	05 90       	lpm	r0, Z+
     e8a:	07 94       	ror	r0
     e8c:	20 f4       	brcc	.+8      	; 0xe96 <__ftoa_engine+0xd2>
     e8e:	49 0f       	add	r20, r25
     e90:	56 1f       	adc	r21, r22
     e92:	c7 1f       	adc	r28, r23
     e94:	d8 1f       	adc	r29, r24
     e96:	99 0f       	add	r25, r25
     e98:	66 1f       	adc	r22, r22
     e9a:	77 1f       	adc	r23, r23
     e9c:	88 1f       	adc	r24, r24
     e9e:	06 94       	lsr	r0
     ea0:	a9 f7       	brne	.-22     	; 0xe8c <__ftoa_engine+0xc8>
     ea2:	84 91       	lpm	r24, Z
     ea4:	10 95       	com	r17
     ea6:	17 70       	andi	r17, 0x07	; 7
     ea8:	41 f0       	breq	.+16     	; 0xeba <__ftoa_engine+0xf6>
     eaa:	d6 95       	lsr	r29
     eac:	c7 95       	ror	r28
     eae:	57 95       	ror	r21
     eb0:	47 95       	ror	r20
     eb2:	f7 94       	ror	r15
     eb4:	e7 94       	ror	r14
     eb6:	1a 95       	dec	r17
     eb8:	c1 f7       	brne	.-16     	; 0xeaa <__ftoa_engine+0xe6>
     eba:	ec e5       	ldi	r30, 0x5C	; 92
     ebc:	f0 e0       	ldi	r31, 0x00	; 0
     ebe:	68 94       	set
     ec0:	15 90       	lpm	r1, Z+
     ec2:	15 91       	lpm	r17, Z+
     ec4:	35 91       	lpm	r19, Z+
     ec6:	65 91       	lpm	r22, Z+
     ec8:	95 91       	lpm	r25, Z+
     eca:	05 90       	lpm	r0, Z+
     ecc:	7f e2       	ldi	r23, 0x2F	; 47
     ece:	73 95       	inc	r23
     ed0:	e1 18       	sub	r14, r1
     ed2:	f1 0a       	sbc	r15, r17
     ed4:	43 0b       	sbc	r20, r19
     ed6:	56 0b       	sbc	r21, r22
     ed8:	c9 0b       	sbc	r28, r25
     eda:	d0 09       	sbc	r29, r0
     edc:	c0 f7       	brcc	.-16     	; 0xece <__ftoa_engine+0x10a>
     ede:	e1 0c       	add	r14, r1
     ee0:	f1 1e       	adc	r15, r17
     ee2:	43 1f       	adc	r20, r19
     ee4:	56 1f       	adc	r21, r22
     ee6:	c9 1f       	adc	r28, r25
     ee8:	d0 1d       	adc	r29, r0
     eea:	7e f4       	brtc	.+30     	; 0xf0a <__ftoa_engine+0x146>
     eec:	70 33       	cpi	r23, 0x30	; 48
     eee:	11 f4       	brne	.+4      	; 0xef4 <__ftoa_engine+0x130>
     ef0:	8a 95       	dec	r24
     ef2:	e6 cf       	rjmp	.-52     	; 0xec0 <__ftoa_engine+0xfc>
     ef4:	e8 94       	clt
     ef6:	01 50       	subi	r16, 0x01	; 1
     ef8:	30 f0       	brcs	.+12     	; 0xf06 <__ftoa_engine+0x142>
     efa:	08 0f       	add	r16, r24
     efc:	0a f4       	brpl	.+2      	; 0xf00 <__ftoa_engine+0x13c>
     efe:	00 27       	eor	r16, r16
     f00:	02 17       	cp	r16, r18
     f02:	08 f4       	brcc	.+2      	; 0xf06 <__ftoa_engine+0x142>
     f04:	20 2f       	mov	r18, r16
     f06:	23 95       	inc	r18
     f08:	02 2f       	mov	r16, r18
     f0a:	7a 33       	cpi	r23, 0x3A	; 58
     f0c:	28 f0       	brcs	.+10     	; 0xf18 <__ftoa_engine+0x154>
     f0e:	79 e3       	ldi	r23, 0x39	; 57
     f10:	7d 93       	st	X+, r23
     f12:	2a 95       	dec	r18
     f14:	e9 f7       	brne	.-6      	; 0xf10 <__ftoa_engine+0x14c>
     f16:	10 c0       	rjmp	.+32     	; 0xf38 <__ftoa_engine+0x174>
     f18:	7d 93       	st	X+, r23
     f1a:	2a 95       	dec	r18
     f1c:	89 f6       	brne	.-94     	; 0xec0 <__ftoa_engine+0xfc>
     f1e:	06 94       	lsr	r0
     f20:	97 95       	ror	r25
     f22:	67 95       	ror	r22
     f24:	37 95       	ror	r19
     f26:	17 95       	ror	r17
     f28:	17 94       	ror	r1
     f2a:	e1 18       	sub	r14, r1
     f2c:	f1 0a       	sbc	r15, r17
     f2e:	43 0b       	sbc	r20, r19
     f30:	56 0b       	sbc	r21, r22
     f32:	c9 0b       	sbc	r28, r25
     f34:	d0 09       	sbc	r29, r0
     f36:	98 f0       	brcs	.+38     	; 0xf5e <__ftoa_engine+0x19a>
     f38:	23 95       	inc	r18
     f3a:	7e 91       	ld	r23, -X
     f3c:	73 95       	inc	r23
     f3e:	7a 33       	cpi	r23, 0x3A	; 58
     f40:	08 f0       	brcs	.+2      	; 0xf44 <__ftoa_engine+0x180>
     f42:	70 e3       	ldi	r23, 0x30	; 48
     f44:	7c 93       	st	X, r23
     f46:	20 13       	cpse	r18, r16
     f48:	b8 f7       	brcc	.-18     	; 0xf38 <__ftoa_engine+0x174>
     f4a:	7e 91       	ld	r23, -X
     f4c:	70 61       	ori	r23, 0x10	; 16
     f4e:	7d 93       	st	X+, r23
     f50:	30 f0       	brcs	.+12     	; 0xf5e <__ftoa_engine+0x19a>
     f52:	83 95       	inc	r24
     f54:	71 e3       	ldi	r23, 0x31	; 49
     f56:	7d 93       	st	X+, r23
     f58:	70 e3       	ldi	r23, 0x30	; 48
     f5a:	2a 95       	dec	r18
     f5c:	e1 f7       	brne	.-8      	; 0xf56 <__ftoa_engine+0x192>
     f5e:	11 24       	eor	r1, r1
     f60:	ef 90       	pop	r14
     f62:	ff 90       	pop	r15
     f64:	0f 91       	pop	r16
     f66:	1f 91       	pop	r17
     f68:	cf 91       	pop	r28
     f6a:	df 91       	pop	r29
     f6c:	99 27       	eor	r25, r25
     f6e:	87 fd       	sbrc	r24, 7
     f70:	90 95       	com	r25
     f72:	08 95       	ret

00000f74 <strnlen_P>:
     f74:	fc 01       	movw	r30, r24
     f76:	05 90       	lpm	r0, Z+
     f78:	61 50       	subi	r22, 0x01	; 1
     f7a:	70 40       	sbci	r23, 0x00	; 0
     f7c:	01 10       	cpse	r0, r1
     f7e:	d8 f7       	brcc	.-10     	; 0xf76 <strnlen_P+0x2>
     f80:	80 95       	com	r24
     f82:	90 95       	com	r25
     f84:	8e 0f       	add	r24, r30
     f86:	9f 1f       	adc	r25, r31
     f88:	08 95       	ret

00000f8a <strnlen>:
     f8a:	fc 01       	movw	r30, r24
     f8c:	61 50       	subi	r22, 0x01	; 1
     f8e:	70 40       	sbci	r23, 0x00	; 0
     f90:	01 90       	ld	r0, Z+
     f92:	01 10       	cpse	r0, r1
     f94:	d8 f7       	brcc	.-10     	; 0xf8c <strnlen+0x2>
     f96:	80 95       	com	r24
     f98:	90 95       	com	r25
     f9a:	8e 0f       	add	r24, r30
     f9c:	9f 1f       	adc	r25, r31
     f9e:	08 95       	ret

00000fa0 <fputc>:
     fa0:	0f 93       	push	r16
     fa2:	1f 93       	push	r17
     fa4:	cf 93       	push	r28
     fa6:	df 93       	push	r29
     fa8:	fb 01       	movw	r30, r22
     faa:	23 81       	ldd	r18, Z+3	; 0x03
     fac:	21 fd       	sbrc	r18, 1
     fae:	03 c0       	rjmp	.+6      	; 0xfb6 <fputc+0x16>
     fb0:	8f ef       	ldi	r24, 0xFF	; 255
     fb2:	9f ef       	ldi	r25, 0xFF	; 255
     fb4:	2c c0       	rjmp	.+88     	; 0x100e <fputc+0x6e>
     fb6:	22 ff       	sbrs	r18, 2
     fb8:	16 c0       	rjmp	.+44     	; 0xfe6 <fputc+0x46>
     fba:	46 81       	ldd	r20, Z+6	; 0x06
     fbc:	57 81       	ldd	r21, Z+7	; 0x07
     fbe:	24 81       	ldd	r18, Z+4	; 0x04
     fc0:	35 81       	ldd	r19, Z+5	; 0x05
     fc2:	42 17       	cp	r20, r18
     fc4:	53 07       	cpc	r21, r19
     fc6:	44 f4       	brge	.+16     	; 0xfd8 <fputc+0x38>
     fc8:	a0 81       	ld	r26, Z
     fca:	b1 81       	ldd	r27, Z+1	; 0x01
     fcc:	9d 01       	movw	r18, r26
     fce:	2f 5f       	subi	r18, 0xFF	; 255
     fd0:	3f 4f       	sbci	r19, 0xFF	; 255
     fd2:	31 83       	std	Z+1, r19	; 0x01
     fd4:	20 83       	st	Z, r18
     fd6:	8c 93       	st	X, r24
     fd8:	26 81       	ldd	r18, Z+6	; 0x06
     fda:	37 81       	ldd	r19, Z+7	; 0x07
     fdc:	2f 5f       	subi	r18, 0xFF	; 255
     fde:	3f 4f       	sbci	r19, 0xFF	; 255
     fe0:	37 83       	std	Z+7, r19	; 0x07
     fe2:	26 83       	std	Z+6, r18	; 0x06
     fe4:	14 c0       	rjmp	.+40     	; 0x100e <fputc+0x6e>
     fe6:	8b 01       	movw	r16, r22
     fe8:	ec 01       	movw	r28, r24
     fea:	fb 01       	movw	r30, r22
     fec:	00 84       	ldd	r0, Z+8	; 0x08
     fee:	f1 85       	ldd	r31, Z+9	; 0x09
     ff0:	e0 2d       	mov	r30, r0
     ff2:	09 95       	icall
     ff4:	89 2b       	or	r24, r25
     ff6:	e1 f6       	brne	.-72     	; 0xfb0 <fputc+0x10>
     ff8:	d8 01       	movw	r26, r16
     ffa:	16 96       	adiw	r26, 0x06	; 6
     ffc:	8d 91       	ld	r24, X+
     ffe:	9c 91       	ld	r25, X
    1000:	17 97       	sbiw	r26, 0x07	; 7
    1002:	01 96       	adiw	r24, 0x01	; 1
    1004:	17 96       	adiw	r26, 0x07	; 7
    1006:	9c 93       	st	X, r25
    1008:	8e 93       	st	-X, r24
    100a:	16 97       	sbiw	r26, 0x06	; 6
    100c:	ce 01       	movw	r24, r28
    100e:	df 91       	pop	r29
    1010:	cf 91       	pop	r28
    1012:	1f 91       	pop	r17
    1014:	0f 91       	pop	r16
    1016:	08 95       	ret

00001018 <sprintf>:
    1018:	ae e0       	ldi	r26, 0x0E	; 14
    101a:	b0 e0       	ldi	r27, 0x00	; 0
    101c:	e2 e1       	ldi	r30, 0x12	; 18
    101e:	f8 e0       	ldi	r31, 0x08	; 8
    1020:	0c 94 b9 06 	jmp	0xd72	; 0xd72 <__prologue_saves__+0x1c>
    1024:	0d 89       	ldd	r16, Y+21	; 0x15
    1026:	1e 89       	ldd	r17, Y+22	; 0x16
    1028:	86 e0       	ldi	r24, 0x06	; 6
    102a:	8c 83       	std	Y+4, r24	; 0x04
    102c:	1a 83       	std	Y+2, r17	; 0x02
    102e:	09 83       	std	Y+1, r16	; 0x01
    1030:	8f ef       	ldi	r24, 0xFF	; 255
    1032:	9f e7       	ldi	r25, 0x7F	; 127
    1034:	9e 83       	std	Y+6, r25	; 0x06
    1036:	8d 83       	std	Y+5, r24	; 0x05
    1038:	ae 01       	movw	r20, r28
    103a:	47 5e       	subi	r20, 0xE7	; 231
    103c:	5f 4f       	sbci	r21, 0xFF	; 255
    103e:	6f 89       	ldd	r22, Y+23	; 0x17
    1040:	78 8d       	ldd	r23, Y+24	; 0x18
    1042:	ce 01       	movw	r24, r28
    1044:	01 96       	adiw	r24, 0x01	; 1
    1046:	0e 94 33 02 	call	0x466	; 0x466 <vfprintf>
    104a:	ef 81       	ldd	r30, Y+7	; 0x07
    104c:	f8 85       	ldd	r31, Y+8	; 0x08
    104e:	e0 0f       	add	r30, r16
    1050:	f1 1f       	adc	r31, r17
    1052:	10 82       	st	Z, r1
    1054:	2e 96       	adiw	r28, 0x0e	; 14
    1056:	e4 e0       	ldi	r30, 0x04	; 4
    1058:	0c 94 d5 06 	jmp	0xdaa	; 0xdaa <__epilogue_restores__+0x1c>

0000105c <__ultoa_invert>:
    105c:	fa 01       	movw	r30, r20
    105e:	aa 27       	eor	r26, r26
    1060:	28 30       	cpi	r18, 0x08	; 8
    1062:	51 f1       	breq	.+84     	; 0x10b8 <__ultoa_invert+0x5c>
    1064:	20 31       	cpi	r18, 0x10	; 16
    1066:	81 f1       	breq	.+96     	; 0x10c8 <__ultoa_invert+0x6c>
    1068:	e8 94       	clt
    106a:	6f 93       	push	r22
    106c:	6e 7f       	andi	r22, 0xFE	; 254
    106e:	6e 5f       	subi	r22, 0xFE	; 254
    1070:	7f 4f       	sbci	r23, 0xFF	; 255
    1072:	8f 4f       	sbci	r24, 0xFF	; 255
    1074:	9f 4f       	sbci	r25, 0xFF	; 255
    1076:	af 4f       	sbci	r26, 0xFF	; 255
    1078:	b1 e0       	ldi	r27, 0x01	; 1
    107a:	3e d0       	rcall	.+124    	; 0x10f8 <__ultoa_invert+0x9c>
    107c:	b4 e0       	ldi	r27, 0x04	; 4
    107e:	3c d0       	rcall	.+120    	; 0x10f8 <__ultoa_invert+0x9c>
    1080:	67 0f       	add	r22, r23
    1082:	78 1f       	adc	r23, r24
    1084:	89 1f       	adc	r24, r25
    1086:	9a 1f       	adc	r25, r26
    1088:	a1 1d       	adc	r26, r1
    108a:	68 0f       	add	r22, r24
    108c:	79 1f       	adc	r23, r25
    108e:	8a 1f       	adc	r24, r26
    1090:	91 1d       	adc	r25, r1
    1092:	a1 1d       	adc	r26, r1
    1094:	6a 0f       	add	r22, r26
    1096:	71 1d       	adc	r23, r1
    1098:	81 1d       	adc	r24, r1
    109a:	91 1d       	adc	r25, r1
    109c:	a1 1d       	adc	r26, r1
    109e:	20 d0       	rcall	.+64     	; 0x10e0 <__ultoa_invert+0x84>
    10a0:	09 f4       	brne	.+2      	; 0x10a4 <__ultoa_invert+0x48>
    10a2:	68 94       	set
    10a4:	3f 91       	pop	r19
    10a6:	2a e0       	ldi	r18, 0x0A	; 10
    10a8:	26 9f       	mul	r18, r22
    10aa:	11 24       	eor	r1, r1
    10ac:	30 19       	sub	r19, r0
    10ae:	30 5d       	subi	r19, 0xD0	; 208
    10b0:	31 93       	st	Z+, r19
    10b2:	de f6       	brtc	.-74     	; 0x106a <__ultoa_invert+0xe>
    10b4:	cf 01       	movw	r24, r30
    10b6:	08 95       	ret
    10b8:	46 2f       	mov	r20, r22
    10ba:	47 70       	andi	r20, 0x07	; 7
    10bc:	40 5d       	subi	r20, 0xD0	; 208
    10be:	41 93       	st	Z+, r20
    10c0:	b3 e0       	ldi	r27, 0x03	; 3
    10c2:	0f d0       	rcall	.+30     	; 0x10e2 <__ultoa_invert+0x86>
    10c4:	c9 f7       	brne	.-14     	; 0x10b8 <__ultoa_invert+0x5c>
    10c6:	f6 cf       	rjmp	.-20     	; 0x10b4 <__ultoa_invert+0x58>
    10c8:	46 2f       	mov	r20, r22
    10ca:	4f 70       	andi	r20, 0x0F	; 15
    10cc:	40 5d       	subi	r20, 0xD0	; 208
    10ce:	4a 33       	cpi	r20, 0x3A	; 58
    10d0:	18 f0       	brcs	.+6      	; 0x10d8 <__ultoa_invert+0x7c>
    10d2:	49 5d       	subi	r20, 0xD9	; 217
    10d4:	31 fd       	sbrc	r19, 1
    10d6:	40 52       	subi	r20, 0x20	; 32
    10d8:	41 93       	st	Z+, r20
    10da:	02 d0       	rcall	.+4      	; 0x10e0 <__ultoa_invert+0x84>
    10dc:	a9 f7       	brne	.-22     	; 0x10c8 <__ultoa_invert+0x6c>
    10de:	ea cf       	rjmp	.-44     	; 0x10b4 <__ultoa_invert+0x58>
    10e0:	b4 e0       	ldi	r27, 0x04	; 4
    10e2:	a6 95       	lsr	r26
    10e4:	97 95       	ror	r25
    10e6:	87 95       	ror	r24
    10e8:	77 95       	ror	r23
    10ea:	67 95       	ror	r22
    10ec:	ba 95       	dec	r27
    10ee:	c9 f7       	brne	.-14     	; 0x10e2 <__ultoa_invert+0x86>
    10f0:	00 97       	sbiw	r24, 0x00	; 0
    10f2:	61 05       	cpc	r22, r1
    10f4:	71 05       	cpc	r23, r1
    10f6:	08 95       	ret
    10f8:	9b 01       	movw	r18, r22
    10fa:	ac 01       	movw	r20, r24
    10fc:	0a 2e       	mov	r0, r26
    10fe:	06 94       	lsr	r0
    1100:	57 95       	ror	r21
    1102:	47 95       	ror	r20
    1104:	37 95       	ror	r19
    1106:	27 95       	ror	r18
    1108:	ba 95       	dec	r27
    110a:	c9 f7       	brne	.-14     	; 0x10fe <__ultoa_invert+0xa2>
    110c:	62 0f       	add	r22, r18
    110e:	73 1f       	adc	r23, r19
    1110:	84 1f       	adc	r24, r20
    1112:	95 1f       	adc	r25, r21
    1114:	a0 1d       	adc	r26, r0
    1116:	08 95       	ret

00001118 <_exit>:
    1118:	f8 94       	cli

0000111a <__stop_program>:
    111a:	ff cf       	rjmp	.-2      	; 0x111a <__stop_program>
