S015000064617931345F4144435F6C63642E73726563B3
S11300000C94AB000C94C8000C94C8000C94C80069
S11300100C94C8000C94C8000C94C8000C94C8003C
S11300200C94C8000C94C8000C94C8000C94C8002C
S11300300C94C8000C94C8000C94C8000C94C8001C
S11300400C94C8000C94C8000C94C8000C94C8000C
S11300500C94C8006E616E00696E660000407A10F0
S1130060F35A00A0724E18090010A5D4E80000E865
S11300707648170000E40B54020000CA9A3B0000C3
S113008000E1F505000080969800000040420F0052
S11300900000A08601000000102700000000E80313
S11300A0000000006400000000000A0000000000DE
S11300B00100000000002C76D888DC674F0823DF9D
S11300C0C1DFAE59E1B1B796E5E3E453C63AE65170
S11300D0997696E8E6C28426EB898C9B62ED407C97
S11300E06FFCEFBC9C9F40F2BAA56FA5F490055A33
S11300F02AF75C936B6CF9676DC11BFCE0E40D4758
S1130100FEF520E6B500D0ED902E0300943577057A
S11301100080841E080000204E0A000000C80C3332
S11301203333330F986E12831141EF8D2114893BC1
S1130130E65516CFFEE6DB18D1844B381BF77C1D41
S1130140901DA4BBE424203284725E228100C9F194
S113015024ECA1E53D2711241FBECFE5D8E0DEBF86
S1130160CDBF10E0A0E6B0E0ECE1F1E102C0059003
S11301700D92AA37B107D9F720E0AAE7B0E001C091
S11301801D92A639B207E1F70E948D010C948C08E8
S11301900C9400003E9A3F9A309886B1866886B9DE
S11301A00895806C87B9369A3699FECF84B195B19B
S11301B0089580FF02C0AC9A01C0AC9881FF02C0D0
S11301C0AD9A01C0AD9882FF02C0AE9A01C0AE984C
S11301D083FF02C0AF9A01C0AF98969A96988FE9B0
S11301E09FE00197F1F700C000000895CF93C82F56
S11301F0949882958F700E94D9008C2F0E94D90008
S1130200CF910895613021F481580E94F600089539
S1130210623021F481540E94F6000895633021F481
S11302208D560E94F6000895643019F48D520E9490
S1130230F60008958C9A8D9A8E9AA49AA59AA69AF5
S1130240A79A949896982FE789EA93E021508040E2
S11302509040E1F700C0000083E00E94D9002FE73E
S113026089EA93E0215080409040E1F700C000000B
S113027083E00E94D9002FE789EA93E0215080406F
S11302809040E1F700C0000083E00E94D9002FE70E
S113029089EA93E0215080409040E1F700C00000DB
S11302A082E00E94D90088E20E94F6008CE00E945D
S11302B0F60086E00E94F60080E80E94F6000895A9
S11302C0CF93C82F949A82958F700E94D9008C2F57
S11302D00E94D900CF9108950F931F93CF93FC01EF
S11302E08081882379F08F010F5F1F4FC0E00E9447
S11302F06001CF5FF80181918F018111F8CFC43182
S113030011F407C0C0E080E20E946001CF5FC431F5
S1130310D1F7CF911F910F9108950E941A010E9465
S11303201A010E94CA008BE0E0E6F0E0A6E8B0E023
S113033001900D928A95E1F761E081E00E9402014B
S113034086E890E00E946C018AE0EBE6F0E0A6E823
S1130350B0E001900D928A95E1F762E081E00E949D
S1130360020186E890E00E946C0105E710E0C6E80F
S1130370D0E080E00E94D100BC0180E090E00E94C7
S1130380B005F62EE72ED82EC92E862F9E2DAD2D24
S1130390BC2D8093820090938300A0938400B0933B
S11303A085002AE037ED43E250E46F2D7E2D8D2D3C
S11303B09C2D0E94ED0520E030E040E85AE30E94C5
S11303C0ED0560937E0070937F008093800090938E
S11303D0810028EB3EE143E451E40E94ED05609383
S11303E07A0070937B0080937C0090937D00CF9281
S11303F0DF92EF92FF921F930F93DF93CF930E94AC
S11304000C0861E08BE00E940201CE010E946C01A5
S113041080917D008F9380917C008F9380917B00ED
S11304208F9380917A008F931F930F93DF93CF93D1
S11304300E940C0862E08BE00E940201CE010E943F
S11304406C018FE798E321E0815090402040E1F770
S113045000C000008DB79EB740960FB6F8949EBFBB
S11304600FBE8DBF86CFA0E1B0E0E9E3F2E00C94CB
S1130470AB067C011B016A01FC0117821682838191
S113048081FF44C39E012F5F3F4F3901F7019381E0
S1130490F10193FD859193FF81911F01882309F454
S11304A031C3853239F493FD859193FF81911F0106
S11304B0853239F4B70190E00E94D00756016501F6
S11304C0E5CF10E0512C912CFFE1F915D8F08B32D7
S11304D079F038F4803279F08332A1F4F92DF061A7
S11304E02EC08D3261F0803369F4292D21602DC036
S11304F0392D3260932E892D8460982E2AC0E92DDF
S1130500E86015C097FC2DC020ED280F2A3088F430
S113051096FE06C03AE0139F200D1124122F19C035
S11305208AE0589E200D1124522EE92DE0629E2E61
S113053010C08E3231F496FCE5C2F92DF0649F2E82
S113054008C08C3621F4292D2068922E02C08836EA
S113055041F4F10193FD859193FF81911F01811174
S1130560B3CF9BEB980F933020F4992D9061805E6C
S113057007C09BE9980F933008F066C1992D9F7EC0
S113058096FF16E09F73992E853619F49064992E80
S113059008C0863621F4392F3068932E02C0111119
S11305A0115097FE07C01C3350F444244394410E69
S11305B027E00BC0183038F027E017E005C027E02B
S11305C09CE3492E02C0212F412C560184E0A80E41
S11305D0B11CF6016081718182819381042DA30194
S11305E00E94E2066C01F981FC87F0FF02C0F3FF70
S11305F006C091FC06C092FE06C000E205C00DE2F2
S113060003C00BE201C000E08C858C7019F001116D
S11306105AC29BC297FE10C04C0CFC85F4FF04C068
S11306208A81813309F44A94141474F528E024155A
S113063078F588E0482E2CC096FC2AC0812F90E0E3
S11306408C159D059CF03CEFC3163FEFD30674F068
S1130650892D8068982E0AC0E2E0F0E0EC0FFD1FBF
S1130660E10FF11D8081803319F411501111F4CF81
S113067097FE0EC044244394410E812F90E0C81687
S1130680D9062CF41C1904C04424439401C010E07E
S113069097FE06C01C141D0434F4C601019605C05F
S11306A085E090E002C081E090E001110196112301
S11306B031F0212F30E02F5F3F4F820F931F252D04
S11306C030E08217930714F4581A01C0512C892D75
S11306D0897049F4552039F0B70180E290E00E9416
S11306E0D0075A94F7CF002329F0B701802F90E068
S11306F00E94D00793FC09C0552039F0B70180E36C
S113070090E00E94D0075A94F7CF97FE4CC0460160
S1130710D7FE02C0812C912CC60188199909F301D6
S1130720E80FF91FFE87ED87960124193109388BEC
S11307302F87012F10E01195019511093FEF8316C2
S1130740930629F4B7018EE290E00E94D007C81402
S1130750D9044CF08F8598898815990524F4ED8582
S1130760FE85818101C080E3F1E08F1A91082D8517
S11307703E852F5F3F4F3E872D87801691062CF0D4
S1130780B70190E00E94D007D9CFC814D90441F42E
S11307909A81963320F4953319F43C8534FF81E330
S11307A0B70190E04EC08A81813319F09C859F7E09
S11307B09C87B70190E00E94D007111105C094FCFA
S11307C018C085E690E017C0B7018EE290E00E9461
S11307D0D0071E5F82E001E0080FF301E80FF11D6E
S11307E08081B70190E00E94D007802F0113F3CFDE
S11307F0E6CF85E490E0B7010E94D007D7FC06C09D
S1130800C114D10441F4EC85E4FF05C0D194C19432
S1130810D1088DE201C08BE2B70190E00E94D007BD
S113082080E32AE0C216D1042CF08F5FFAE0CF1ADD
S1130830D108F7CFB70190E00E94D007B701C601F5
S1130840C0960E94D00754C1833631F0833779F0C3
S1130850833509F056C020C0560132E0A30EB11C06
S1130860F6018081898301E010E0630112C0560122
S1130870F2E0AF0EB11CF601C080D18096FE03C039
S1130880612F70E002C06FEF7FEFC6010E94C507C1
S11308908C01F92DFF7714C0560122E0A20EB11C81
S11308A0F601C080D18096FE03C0612F70E002C0C3
S11308B06FEF7FEFC6010E94BA078C01F92DF06833
S11308C09F2EF3FD1AC0852D90E008171907A8F490
S11308D0B70180E290E00E94D0075A94F4CFF60169
S11308E097FC859197FE81916F01B70190E00E947A
S11308F0D00751105A94015011090115110579F7C7
S1130900F7C0843611F0893661F5560197FE09C0A7
S113091024E0A20EB11CF601608171818281938171
S11309200AC0F2E0AF0EB11CF60160817181072E9E
S1130930000C880B990BF92DFF769F2E97FF09C0A9
S113094090958095709561957F4F8F4F9F4FF0687C
S11309509F2E2AE030E0A3010E942E08C82EC6185C
S11309603FC0092D853721F40F7E2AE030E01DC0F9
S1130970097F8F3691F018F4883559F0C3C0803759
S113098019F0883711F0BEC0006104FF09C004608B
S113099007C094FE08C0066006C028E030E005C029
S11309A020E130E002C020E132E0560107FF09C037
S11309B084E0A80EB11CF60160817181828193816B
S11309C008C0F2E0AF0EB11CF6016081718180E0D5
S11309D090E0A3010E942E08C82EC6180F77902E0F
S11309E096FE0BC0092D0E7FC11650F494FE0AC06A
S11309F092FC08C0092D0E7E05C0DC2C092D03C015
S1130A00DC2C01C0D12E04FF0DC0FE01EC0DF11D44
S1130A108081803311F4097E09C002FF06C0D3949B
S1130A20D39404C0802F867809F0D39403FD11C0B9
S1130A3000FF06C01C2DD51480F4150D1D190DC022
S1130A40D51458F4B70180E290E00E94D007D39403
S1130A50F7CFD51410F45D1801C0512C04FF10C059
S1130A60B70180E390E00E94D00702FF17C001FDA8
S1130A7003C088E790E002C088E590E0B7010CC0AD
S1130A80802F867859F001FF02C08BE201C080E21A
S1130A9007FD8DE2B70190E00E94D007C11638F43B
S1130AA0B70180E390E00E94D0071150F7CFCA94B9
S1130AB0F301EC0DF11D8081B70190E00E94D00795
S1130AC0C110F5CF15C0F4E0F51560F584E0581AAF
S1130AD093FE1FC0011127C02C8523FF2AC004E503
S1130AE010E0392D3071932EF8018491811124C0C6
S1130AF0552009F4E4CCB70180E290E00E94D007CD
S1130B005A94F6CFF7018681978126C08FEF9FEF25
S1130B1023C0B70180E290E00E94D0075A9451109C
S1130B20F8CFD8CF512CB701802F90E00E94D00786
S1130B30D3CF08E510E0D5CF91108052B70190E0F3
S1130B400E94D0070F5F1F4FCFCF23E0251510F46D
S1130B5083E0BDCF512CC0CF6096E2E10C94C70670
S1130B60E89409C097FB3EF4909580957095619543
S1130B707F4F8F4F9F4F9923A9F0F92F96E9BB27F9
S1130B809395F695879577956795B795F111F8CF75
S1130B90FAF4BB0F11F460FF1BC06F5F7F4F8F4FE0
S1130BA09F4F16C0882311F096E911C0772321F0D6
S1130BB09EE8872F762F05C0662371F096E8862F6E
S1130BC070E060E02AF09A95660F771F881FDAF7C5
S1130BD0880F9695879597F908950E9400060C94BE
S1130BE071060E94630638F00E946A0620F095237D
S1130BF011F00C945A060C94600611240C94A5066A
S1130C000E94820670F3959FC1F3950F50E0551F23
S1130C10629FF001729FBB27F00DB11D639FAA274D
S1130C20F00DB11DAA1F649F6627B00DA11D661F9C
S1130C30829F2227B00DA11D621F739FB00DA11DBD
S1130C40621F839FA00D611D221F749F3327A00D77
S1130C50611D231F849F600D211D822F762F6A2F13
S1130C6011249F5750409AF0F1F088234AF0EE0F78
S1130C70FF1FBB1F661F771F881F91505040A9F7A5
S1130C809E3F510580F00C945A060C94A5065F3FD4
S1130C90E4F3983ED4F3869577956795B795F795E1
S1130CA0E7959F5FC1F7FE2B880F911D9695879559
S1130CB097F9089597F99F6780E870E060E00895D8
S1130CC09FEF80EC089500240A9416161706180660
S1130CD00906089500240A9412161306140605063C
S1130CE00895092E0394000C11F4882352F0BB0FCD
S1130CF040F4BF2B11F460FF04C06F5F7F4F8F4F30
S1130D009F4F089557FD9058440F551F59F05F3F6A
S1130D1071F04795880F97FB991F61F09F3F79F019
S1130D2087950895121613061406551FF2CF46959B
S1130D30F1DF08C0161617061806991FF1CF86951D
S1130D407105610508940895E894BB276627772701
S1130D50CB0197F908952F923F924F925F926F9231
S1130D607F928F929F92AF92BF92CF92DF92EF9237
S1130D70FF920F931F93CF93DF93CDB7DEB7CA1BB8
S1130D80DB0B0FB6F894DEBF0FBECDBF09942A88E3
S1130D90398848885F846E847D848C849B84AA848B
S1130DA0B984C884DF80EE80FD800C811B81AA8118
S1130DB0B981CE0FD11D0FB6F894DEBF0FBECDBFE3
S1130DC0ED010895283008F027E03327DA01990F60
S1130DD0311D87FD916000966105710539F432601B
S1130DE02E5F3D9330E32A95E1F708959F3F30F05D
S1130DF080387105610509F03C5F3C5F3D9391309B
S1130E0008F08068911DDF93CF931F930F93FF9297
S1130E10EF92192F987F9695E92F96959695E90F5D
S1130E20FF27EA54FF4F99273327EE24FF24A70115
S1130E30E70105900894079428F4360FE71EF81E7E
S1130E40491F511D660F771F881F991F0694A1F72C
S1130E500590079428F4E70EF81E491F561FC11D7C
S1130E60770F881F991F661F0694A1F705900794B2
S1130E7028F4F80E491F561FC71FD11D880F991F4C
S1130E80661F771F0694A1F70590079420F4490F75
S1130E90561FC71FD81F990F661F771F881F0694F8
S1130EA0A9F784911095177041F0D695C795579579
S1130EB04795F794E7941A95C1F7ECE5F0E0689448
S1130EC01590159135916591959105907FE27395F3
S1130ED0E118F10A430B560BC90BD009C0F7E10C1A
S1130EE0F11E431F561FC91FD01D7EF4703311F429
S1130EF08A95E6CFE894015030F0080F0AF40027F1
S1130F00021708F4202F2395022F7A3328F079E36F
S1130F107D932A95E9F710C07D932A9589F6069466
S1130F2097956795379517951794E118F10A430B30
S1130F30560BC90BD00998F023957E9173957A339B
S1130F4008F070E37C932013B8F77E9170617D9371
S1130F5030F0839571E37D9370E32A95E1F71124D2
S1130F60EF90FF900F911F91CF91DF91992787FD0B
S1130F7090950895FC010590615070400110D8F7D8
S1130F80809590958E0F9F1F0895FC0161507040CD
S1130F9001900110D8F7809590958E0F9F1F0895AA
S1130FA00F931F93CF93DF93FB01238121FD03C094
S1130FB08FEF9FEF2CC022FF16C0468157812481FA
S1130FC035814217530744F4A081B1819D012F5FFD
S1130FD03F4F318320838C93268137812F5F3F4F8E
S1130FE03783268314C08B01EC01FB010084F18557
S1130FF0E02D0995892BE1F6D80116968D919C91E7
S11310001797019617969C938E931697CE01DF91AE
S1131010CF911F910F910895AEE0B0E0E2E1F8E0C6
S11310200C94B9060D891E8986E08C831A83098382
S11310308FEF9FE79E838D83AE01475E5F4F6F897D
S1131040788DCE0101960E943302EF81F885E00F7E
S1131050F11F10822E96E4E00C94D506FA01AA271B
S1131060283051F1203181F1E8946F936E7F6E5FE7
S11310707F4F8F4F9F4FAF4FB1E03ED0B4E03CD095
S1131080670F781F891F9A1FA11D680F791F8A1F78
S1131090911DA11D6A0F711D811D911DA11D20D0DF
S11310A009F468943F912AE0269F11243019305D99
S11310B03193DEF6CF010895462F4770405D41938A
S11310C0B3E00FD0C9F7F6CF462F4F70405D4A33D7
S11310D018F0495D31FD4052419302D0A9F7EACF9F
S11310E0B4E0A6959795879577956795BA95C9F7CE
S11310F000976105710508959B01AC010A2E0694C1
S11311005795479537952795BA95C9F7620F731F79
S10F1110841F951FA01D0895F894FFCFC4
S113111C4144432056616C75653A00414443205662
S10D112C6F6C743A00252E32660041
S9030000FC
